{
  "contractName": "FlightSuretyData",
  "abi": [
    {
      "inputs": [],
      "stateMutability": "nonpayable",
      "type": "constructor"
    },
    {
      "stateMutability": "nonpayable",
      "type": "fallback"
    },
    {
      "inputs": [],
      "name": "isOperational",
      "outputs": [
        {
          "internalType": "bool",
          "name": "",
          "type": "bool"
        }
      ],
      "stateMutability": "view",
      "type": "function"
    },
    {
      "inputs": [
        {
          "internalType": "bool",
          "name": "mode",
          "type": "bool"
        }
      ],
      "name": "setOperatingStatus",
      "outputs": [],
      "stateMutability": "nonpayable",
      "type": "function"
    },
    {
      "inputs": [],
      "name": "registerAirline",
      "outputs": [],
      "stateMutability": "pure",
      "type": "function"
    },
    {
      "inputs": [
        {
          "internalType": "address",
          "name": "airline",
          "type": "address"
        },
        {
          "internalType": "string",
          "name": "flight",
          "type": "string"
        },
        {
          "internalType": "uint256",
          "name": "timestamp",
          "type": "uint256"
        },
        {
          "internalType": "address",
          "name": "insuree",
          "type": "address"
        }
      ],
      "name": "buy",
      "outputs": [],
      "stateMutability": "payable",
      "type": "function"
    },
    {
      "inputs": [
        {
          "internalType": "address",
          "name": "airline",
          "type": "address"
        },
        {
          "internalType": "string",
          "name": "flight",
          "type": "string"
        },
        {
          "internalType": "uint256",
          "name": "timestamp",
          "type": "uint256"
        }
      ],
      "name": "creditInsurees",
      "outputs": [],
      "stateMutability": "nonpayable",
      "type": "function"
    },
    {
      "inputs": [
        {
          "internalType": "address",
          "name": "passenger",
          "type": "address"
        }
      ],
      "name": "_pay",
      "outputs": [],
      "stateMutability": "nonpayable",
      "type": "function"
    },
    {
      "inputs": [
        {
          "internalType": "address",
          "name": "airline",
          "type": "address"
        },
        {
          "internalType": "string",
          "name": "flight",
          "type": "string"
        },
        {
          "internalType": "uint256",
          "name": "timestamp",
          "type": "uint256"
        }
      ],
      "name": "clearInsurance",
      "outputs": [],
      "stateMutability": "nonpayable",
      "type": "function"
    },
    {
      "inputs": [
        {
          "internalType": "address",
          "name": "airline",
          "type": "address"
        }
      ],
      "name": "fund",
      "outputs": [],
      "stateMutability": "payable",
      "type": "function"
    },
    {
      "inputs": [
        {
          "internalType": "address",
          "name": "passenger",
          "type": "address"
        }
      ],
      "name": "getCredit",
      "outputs": [
        {
          "internalType": "uint256",
          "name": "",
          "type": "uint256"
        }
      ],
      "stateMutability": "view",
      "type": "function"
    },
    {
      "inputs": [
        {
          "internalType": "address",
          "name": "passenger",
          "type": "address"
        },
        {
          "internalType": "address",
          "name": "airline",
          "type": "address"
        },
        {
          "internalType": "string",
          "name": "flight",
          "type": "string"
        },
        {
          "internalType": "uint256",
          "name": "timestamp",
          "type": "uint256"
        }
      ],
      "name": "getInsurance",
      "outputs": [
        {
          "internalType": "uint256",
          "name": "",
          "type": "uint256"
        }
      ],
      "stateMutability": "view",
      "type": "function"
    },
    {
      "inputs": [
        {
          "internalType": "bytes32",
          "name": "key",
          "type": "bytes32"
        }
      ],
      "name": "getInsuranceData",
      "outputs": [
        {
          "internalType": "address",
          "name": "airline",
          "type": "address"
        },
        {
          "internalType": "string",
          "name": "flight",
          "type": "string"
        },
        {
          "internalType": "uint256",
          "name": "timestamp",
          "type": "uint256"
        }
      ],
      "stateMutability": "view",
      "type": "function"
    }
  ],
  "bytecode": "0x60806040526001600260146101000a81548160ff02191690831515021790555034801561002b57600080fd5b5033600260006101000a81548173ffffffffffffffffffffffffffffffffffffffff021916908373ffffffffffffffffffffffffffffffffffffffff1602179055506119e38061007c6000396000f3fe6080604052600436106100a05760003560e01c806357344e6f1161006457806357344e6f1461043457806363e29a3f14610499578063810f2811146104b0578063c8820a7014610501578063cd905dff146105f3578063e823266114610620576100a1565b8063110466ed146100b057806323024408146100ed5780634cb74b19146101315780634f253f6e1461020957806350cf16671461030e576100a1565b5b3480156100ad57600080fd5b50005b3480156100bc57600080fd5b506100eb600480360360208110156100d357600080fd5b81019080803515159060200190929190505050610712565b005b61012f6004803603602081101561010357600080fd5b81019080803573ffffffffffffffffffffffffffffffffffffffff1690602001909291905050506107f2565b005b34801561013d57600080fd5b5061016a6004803603602081101561015457600080fd5b810190808035906020019092919050505061095e565b604051808473ffffffffffffffffffffffffffffffffffffffff16815260200180602001838152602001828103825284818151815260200191508051906020019080838360005b838110156101cc5780820151818401526020810190506101b1565b50505050905090810190601f1680156101f95780820380516001836020036101000a031916815260200191505b5094505050505060405180910390f35b61030c6004803603608081101561021f57600080fd5b81019080803573ffffffffffffffffffffffffffffffffffffffff1690602001909291908035906020019064010000000081111561025c57600080fd5b82018360208201111561026e57600080fd5b8035906020019184600183028401116401000000008311171561029057600080fd5b91908080601f016020809104026020016040519081016040528093929190818152602001838380828437600081840152601f19601f82011690508083019250505050505050919291929080359060200190929190803573ffffffffffffffffffffffffffffffffffffffff169060200190929190505050610b4d565b005b34801561031a57600080fd5b5061041e6004803603608081101561033157600080fd5b81019080803573ffffffffffffffffffffffffffffffffffffffff169060200190929190803573ffffffffffffffffffffffffffffffffffffffff1690602001909291908035906020019064010000000081111561038e57600080fd5b8201836020820111156103a057600080fd5b803590602001918460018302840111640100000000831117156103c257600080fd5b91908080601f016020809104026020016040519081016040528093929190818152602001838380828437600081840152601f19601f82011690508083019250505050505050919291929080359060200190929190505050610ee5565b6040518082815260200191505060405180910390f35b34801561044057600080fd5b506104836004803603602081101561045757600080fd5b81019080803573ffffffffffffffffffffffffffffffffffffffff169060200190929190505050610ff4565b6040518082815260200191505060405180910390f35b3480156104a557600080fd5b506104ae6110df565b005b3480156104bc57600080fd5b506104ff600480360360208110156104d357600080fd5b81019080803573ffffffffffffffffffffffffffffffffffffffff1690602001909291905050506110e1565b005b34801561050d57600080fd5b506105f16004803603606081101561052457600080fd5b81019080803573ffffffffffffffffffffffffffffffffffffffff1690602001909291908035906020019064010000000081111561056157600080fd5b82018360208201111561057357600080fd5b8035906020019184600183028401116401000000008311171561059557600080fd5b91908080601f016020809104026020016040519081016040528093929190818152602001838380828437600081840152601f19601f82011690508083019250505050505050919291929080359060200190929190505050611257565b005b3480156105ff57600080fd5b506106086114d0565b60405180821515815260200191505060405180910390f35b34801561062c57600080fd5b506107106004803603606081101561064357600080fd5b81019080803573ffffffffffffffffffffffffffffffffffffffff1690602001909291908035906020019064010000000081111561068057600080fd5b82018360208201111561069257600080fd5b803590602001918460018302840111640100000000831117156106b457600080fd5b91908080601f016020809104026020016040519081016040528093929190818152602001838380828437600081840152601f19601f820116905080830192505050505050509192919290803590602001909291905050506114e7565b005b600260009054906101000a900473ffffffffffffffffffffffffffffffffffffffff1673ffffffffffffffffffffffffffffffffffffffff163373ffffffffffffffffffffffffffffffffffffffff16146107d5576040517f08c379a000000000000000000000000000000000000000000000000000000000815260040180806020018281038252601c8152602001807f43616c6c6572206973206e6f7420636f6e7472616374206f776e65720000000081525060200191505060405180910390fd5b80600260146101000a81548160ff02191690831515021790555050565b600160003373ffffffffffffffffffffffffffffffffffffffff1673ffffffffffffffffffffffffffffffffffffffff16815260200190815260200160002060009054906101000a900460ff16610894576040517f08c379a000000000000000000000000000000000000000000000000000000000815260040180806020018281038252602c815260200180611961602c913960400191505060405180910390fd5b600015156000808373ffffffffffffffffffffffffffffffffffffffff1673ffffffffffffffffffffffffffffffffffffffff16815260200190815260200160002060009054906101000a900460ff161515146108f057600080fd5b678ac7230489e80000341461090457600080fd5b60016000808373ffffffffffffffffffffffffffffffffffffffff1673ffffffffffffffffffffffffffffffffffffffff16815260200190815260200160002060006101000a81548160ff02191690831515021790555050565b600060606000600160003373ffffffffffffffffffffffffffffffffffffffff1673ffffffffffffffffffffffffffffffffffffffff16815260200190815260200160002060009054906101000a900460ff16610a06576040517f08c379a000000000000000000000000000000000000000000000000000000000815260040180806020018281038252602c815260200180611961602c913960400191505060405180910390fd5b610a0e61188c565b600360008681526020019081526020016000206040518060600160405290816000820160009054906101000a900473ffffffffffffffffffffffffffffffffffffffff1673ffffffffffffffffffffffffffffffffffffffff1673ffffffffffffffffffffffffffffffffffffffff168152602001600182018054600181600116156101000203166002900480601f016020809104026020016040519081016040528092919081815260200182805460018160011615610100020316600290048015610b1b5780601f10610af057610100808354040283529160200191610b1b565b820191906000526020600020905b815481529060010190602001808311610afe57829003601f168201915b505050505081526020016002820154815250509050806000015181602001518260400151935093509350509193909250565b600160003373ffffffffffffffffffffffffffffffffffffffff1673ffffffffffffffffffffffffffffffffffffffff16815260200190815260200160002060009054906101000a900460ff16610bef576040517f08c379a000000000000000000000000000000000000000000000000000000000815260040180806020018281038252602c815260200180611961602c913960400191505060405180910390fd5b6000610bfc85858561164f565b905060006006600083815260200190815260200160002060008473ffffffffffffffffffffffffffffffffffffffff1673ffffffffffffffffffffffffffffffffffffffff1681526020019081526020016000205414610c5b57600080fd5b60405180606001604052808673ffffffffffffffffffffffffffffffffffffffff168152602001858152602001848152506003600083815260200190815260200160002060008201518160000160006101000a81548173ffffffffffffffffffffffffffffffffffffffff021916908373ffffffffffffffffffffffffffffffffffffffff1602179055506020820151816001019080519060200190610d029291906118c3565b5060408201518160020155905050346006600083815260200190815260200160002060008473ffffffffffffffffffffffffffffffffffffffff1673ffffffffffffffffffffffffffffffffffffffff1681526020019081526020016000208190555060005b600480549050811015610da6578160048281548110610d8357fe5b90600052602060002001541415610d9957610da6565b8080600101915050610d68565b600480549050811415610ddd5760048290806001815401808255809150506001900390600052602060002001600090919091909150555b600090505b600580549050811015610e6c578273ffffffffffffffffffffffffffffffffffffffff1660058281548110610e1357fe5b9060005260206000200160009054906101000a900473ffffffffffffffffffffffffffffffffffffffff1673ffffffffffffffffffffffffffffffffffffffff161415610e5f57610e6c565b8080600101915050610de2565b600580549050811415610edd576005839080600181540180825580915050600190039060005260206000200160009091909190916101000a81548173ffffffffffffffffffffffffffffffffffffffff021916908373ffffffffffffffffffffffffffffffffffffffff1602179055505b505050505050565b6000600160003373ffffffffffffffffffffffffffffffffffffffff1673ffffffffffffffffffffffffffffffffffffffff16815260200190815260200160002060009054906101000a900460ff16610f89576040517f08c379a000000000000000000000000000000000000000000000000000000000815260040180806020018281038252602c815260200180611961602c913960400191505060405180910390fd5b6000610f9685858561164f565b90506006600082815260200190815260200160002060008773ffffffffffffffffffffffffffffffffffffffff1673ffffffffffffffffffffffffffffffffffffffff16815260200190815260200160002054915050949350505050565b6000600160003373ffffffffffffffffffffffffffffffffffffffff1673ffffffffffffffffffffffffffffffffffffffff16815260200190815260200160002060009054906101000a900460ff16611098576040517f08c379a000000000000000000000000000000000000000000000000000000000815260040180806020018281038252602c815260200180611961602c913960400191505060405180910390fd5b600760008373ffffffffffffffffffffffffffffffffffffffff1673ffffffffffffffffffffffffffffffffffffffff168152602001908152602001600020549050919050565b565b600160003373ffffffffffffffffffffffffffffffffffffffff1673ffffffffffffffffffffffffffffffffffffffff16815260200190815260200160002060009054906101000a900460ff16611183576040517f08c379a000000000000000000000000000000000000000000000000000000000815260040180806020018281038252602c815260200180611961602c913960400191505060405180910390fd5b6000600760008373ffffffffffffffffffffffffffffffffffffffff1673ffffffffffffffffffffffffffffffffffffffff1681526020019081526020016000205490506000600760008473ffffffffffffffffffffffffffffffffffffffff1673ffffffffffffffffffffffffffffffffffffffff168152602001908152602001600020819055508173ffffffffffffffffffffffffffffffffffffffff166108fc829081150290604051600060405180830381858888f19350505050158015611252573d6000803e3d6000fd5b505050565b600160003373ffffffffffffffffffffffffffffffffffffffff1673ffffffffffffffffffffffffffffffffffffffff16815260200190815260200160002060009054906101000a900460ff166112f9576040517f08c379a000000000000000000000000000000000000000000000000000000000815260040180806020018281038252602c815260200180611961602c913960400191505060405180910390fd5b600061130684848461164f565b905060005b6005805490508110156114c95760006005828154811061132757fe5b9060005260206000200160009054906101000a900473ffffffffffffffffffffffffffffffffffffffff16905060006113cd60026113bf60036006600089815260200190815260200160002060008773ffffffffffffffffffffffffffffffffffffffff1673ffffffffffffffffffffffffffffffffffffffff168152602001908152602001600020546116f590919063ffffffff16565b61177e90919063ffffffff16565b905060006006600086815260200190815260200160002060008473ffffffffffffffffffffffffffffffffffffffff1673ffffffffffffffffffffffffffffffffffffffff1681526020019081526020016000208190555061147781600760008573ffffffffffffffffffffffffffffffffffffffff1673ffffffffffffffffffffffffffffffffffffffff1681526020019081526020016000205461180490919063ffffffff16565b600760008473ffffffffffffffffffffffffffffffffffffffff1673ffffffffffffffffffffffffffffffffffffffff168152602001908152602001600020819055505050808060010191505061130b565b5050505050565b6000600260149054906101000a900460ff16905090565b600160003373ffffffffffffffffffffffffffffffffffffffff1673ffffffffffffffffffffffffffffffffffffffff16815260200190815260200160002060009054906101000a900460ff16611589576040517f08c379a000000000000000000000000000000000000000000000000000000000815260040180806020018281038252602c815260200180611961602c913960400191505060405180910390fd5b600061159684848461164f565b905060005b600580549050811015611648576000600582815481106115b757fe5b9060005260206000200160009054906101000a900473ffffffffffffffffffffffffffffffffffffffff16905060006006600085815260200190815260200160002060008373ffffffffffffffffffffffffffffffffffffffff1673ffffffffffffffffffffffffffffffffffffffff1681526020019081526020016000208190555050808060010191505061159b565b5050505050565b6000838383604051602001808473ffffffffffffffffffffffffffffffffffffffff1660601b815260140183805190602001908083835b602083106116a95780518252602082019150602081019050602083039250611686565b6001836020036101000a03801982511681845116808217855250505050505090500182815260200193505050506040516020818303038152906040528051906020012090509392505050565b600080821161176c576040517f08c379a000000000000000000000000000000000000000000000000000000000815260040180806020018281038252601a8152602001807f536166654d6174683a206469766973696f6e206279207a65726f00000000000081525060200191505060405180910390fd5b81838161177557fe5b04905092915050565b60008083141561179157600090506117fe565b60008284029050828482816117a257fe5b04146117f9576040517f08c379a000000000000000000000000000000000000000000000000000000000815260040180806020018281038252602181526020018061198d6021913960400191505060405180910390fd5b809150505b92915050565b600080828401905083811015611882576040517f08c379a000000000000000000000000000000000000000000000000000000000815260040180806020018281038252601b8152602001807f536166654d6174683a206164646974696f6e206f766572666c6f77000000000081525060200191505060405180910390fd5b8091505092915050565b6040518060600160405280600073ffffffffffffffffffffffffffffffffffffffff16815260200160608152602001600081525090565b828054600181600116156101000203166002900490600052602060002090601f016020900481019282601f1061190457805160ff1916838001178555611932565b82800160010185558215611932579182015b82811115611931578251825591602001919060010190611916565b5b50905061193f9190611943565b5090565b5b8082111561195c576000816000905550600101611944565b509056fe43616c6c6572206f6620466c6967687453757265747944617461206973206e6f7420617574686f72697a6564536166654d6174683a206d756c7469706c69636174696f6e206f766572666c6f77a2646970667358221220062302fb9927dff1c97e8857f2f3ff197be16eaddd292615a7910984b2644e8264736f6c634300060c0033",
  "immutableReferences": {},
  "source": "\n// SPDX-License-Identifier: MIT\n\npragma solidity >=0.6.0 <0.8.0;\n\nimport \"../node_modules/@openzeppelin/contracts/math/SafeMath.sol\";\n\ncontract FlightSuretyData {\n    using SafeMath for uint256;\n\n    /********************************************************************************************/\n    /*                                       DATA VARIABLES                                     */\n    /********************************************************************************************/\n    mapping(address => bool) private IsFundedAirlines;                    // funded (and thus also approved) airlines\n    mapping(address => bool) private authorizedCallers;   \n    address private contractOwner;                                      // Account used to deploy contract\n    bool private operational = true;                             // Operational\n    mapping(bytes32 => InsuranceData) private insuranceDetails; \n    bytes32[] private insuranceKeys;\n    address[] private allP_Insurees;\n    mapping(bytes32 => mapping(address => uint256)) private insurance;\n    mapping(address => uint256) private credit;                       \n\n    struct InsuranceData {        \n            address airline;\n            string flight;\n            uint256 timestamp;        \n        }\n\n    /********************************************************************************************/\n    /*                                       EVENT DEFINITIONS                                  */\n    /********************************************************************************************/\n\n\n    /**\n    * @dev Constructor\n    *      The deploying account becomes contractOwner\n    */\n    constructor\n                                (\n                                ) \n                                public \n    {\n        contractOwner = msg.sender;\n    }\n\n\n    /********************************************************************************************/\n    /*                                       FUNCTION MODIFIERS                                 */\n    /********************************************************************************************/\n\n    // Modifiers help avoid duplication of code. They are typically used to validate something\n    // before a function is allowed to be executed.\n\n    /**\n    * @dev Modifier that requires the \"operational\" boolean variable to be \"true\"\n    *      This is used on all state changing functions to pause the contract in \n    *      the event there is an issue that needs to be fixed\n    */\n    modifier requireIsOperational() \n    {\n        require(operational, \"Contract is currently not operational\");\n        _;  // All modifiers require an \"_\" which indicates where the function body will be added\n    }\n\n    /**\n    * @dev Modifier that requires the \"ContractOwner\" account to be the function caller\n    */\n    modifier requireContractOwner()\n    {\n        require(msg.sender == contractOwner, \"Caller is not contract owner\");\n        _;\n    }\n\n    modifier requireAuthorizedCaller(){\n        require(authorizedCallers[msg.sender], \"Caller of FlightSuretyData is not authorized\");\n        _;\n    }\n\n\n    /********************************************************************************************/\n    /*                                       UTILITY FUNCTIONS                                  */\n    /********************************************************************************************/\n\n    /**\n    * @dev Get operating status of contract\n    *\n    * @return A bool that is the current operating status\n    */      \n    function isOperational() \n                            public \n                            view \n                            returns(bool) \n    {\n        return operational;\n    }\n\n\n    /**\n    * @dev Sets contract operations on/off\n    *\n    * When operational mode is disabled, all write transactions except for this one will fail\n    */    \n    function setOperatingStatus\n                            (\n                                bool mode\n                            ) \n                            external\n                            requireContractOwner \n    {\n        operational = mode;\n    }\n\n    /********************************************************************************************/\n    /*                                     SMART CONTRACT FUNCTIONS                             */\n    /********************************************************************************************/\n\n   /**\n    * @dev Add an airline to the registration queue\n    *      Can only be called from FlightSuretyApp contract\n    *\n    */   \n    function registerAirline\n                            (   \n                            )\n                            external\n                            pure\n    {\n    }\n\n\n   /**\n    * @dev Buy insurance for a flight\n    *\n    */   \n    function buy\n                            (    address airline, \n                                 string memory flight,\n                                 uint256 timestamp,\n                                 address insuree                         \n                            )\n                            external\n                            payable\n                            requireAuthorizedCaller\n    {\n      // get key\n        bytes32 key = getFlightKey(airline, flight, timestamp);\n        // only one insurance allowed per\n        require(insurance[key][insuree] == 0) ; // only one insurance allowed per passenger per flight\n\n\n          // store insurance metadata\n        insuranceDetails[key] = InsuranceData({airline : airline, flight : flight, timestamp : timestamp}); \n\n        insurance[key][insuree] = msg.value;\n        // add key to list of keys\n        uint256 i=0;\n        for(i=0; i<insuranceKeys.length; i++)\n            if(insuranceKeys[i]==key)\n                break;\n        if(i==insuranceKeys.length) \n            insuranceKeys.push(key);\n\n        // add insuree to list of passenger insurees\n        for(i=0; i<allP_Insurees.length; i++)\n            if(allP_Insurees[i]==insuree)\n                break;\n        if(i==allP_Insurees.length) \n            allP_Insurees.push(insuree); \n \n    }\n\n    /**\n     *  @dev Credits payouts to insurees\n    */\n    function creditInsurees\n                                (\n                                     address airline,\n                                     string memory flight,\n                                     uint256 timestamp\n                                )\n                                external\n                                requireAuthorizedCaller\n    {\n        // get flight key\n        bytes32 key = getFlightKey(airline, flight, timestamp);\n        // loop on insurees\n        for (uint256 i=0; i<allP_Insurees.length; i++){\n            address insuree = allP_Insurees[i];\n            // multiply paid premium by payOff\n            uint256 payout = (insurance[key][insuree]).div(3).mul(2);\n            // set insured amount for flight to 0\n            insurance[key][insuree] = 0;\n            // update insuree credit\n            credit[insuree] = credit[insuree].add(payout);\n    }\n    }\n    \n    \n\n    /**\n     *  @dev Transfers eligible payout funds to insuree\n     *\n    */\n    function _pay(address passenger) external requireAuthorizedCaller{\n        uint256 amt_paid = credit[passenger];\n        credit[passenger] = 0;\n        payable(passenger).transfer(amt_paid);\n    }\n\n\n\n     \n    function clearInsurance(address airline, string memory flight, uint256 timestamp) external requireAuthorizedCaller{\n        // get key\n        bytes32 key = getFlightKey(airline, flight, timestamp);\n        for (uint256 i=0; i<allP_Insurees.length; i++){\n            address insuree = allP_Insurees[i];\n            // set insured amount for flight to 0\n            insurance[key][insuree] = 0;\n        }        \n    }\n\n   /**\n    * @dev Initial funding for the insurance. Unless there are too many delayed flights\n    *      resulting in insurance payouts, the contract should be self-sustaining\n    *\n    */   \n \n    function fund(address airline) external payable requireAuthorizedCaller \n       {\n            \n            require(IsFundedAirlines[airline] == false);\n            require(msg.value == 10 ether);// check  funding  amount\n            IsFundedAirlines[airline] = true;// marking airline as funded\n       }\n\n     /**\n     *  @dev Returns credit of a passenger\n     *\n    */\n    function getCredit(address passenger) view external requireAuthorizedCaller returns(uint256){\n        return credit[passenger];        \n    }\n\n\n\n    function getFlightKey(\n                            address airline,\n                            string memory flight,\n                            uint256 timestamp)\n                            pure\n                        internal\n                        returns(bytes32) \n    {\n        return keccak256(abi.encodePacked(airline, flight, timestamp));\n    }\n\n      /**\n     *  @dev Returns amount of passenger's insurance\n     *\n    */\n    function getInsurance(address passenger, address airline, string memory flight, uint256 timestamp) view external requireAuthorizedCaller returns(uint256){\n        // get flight key\n        bytes32 key = getFlightKey(airline, flight, timestamp);\n        return insurance[key][passenger];\n    }\n\n   // get insurance data \n    function getInsuranceData(bytes32 key) view external requireAuthorizedCaller returns(address airline, string memory flight, uint256 timestamp){\n        InsuranceData memory data = insuranceDetails[key];\n        return (data.airline, data.flight, data.timestamp);\n    }\n\n\n\n    fallback() external {\n    }\n\n    /**\n    * @dev Fallback function for funding smart contract.\n    *\n    */\n    // function() \n    //                         external \n    //                         payable \n    // {\n    //     fund();\n    // }\n\n\n}\n\n",
  "sourcePath": "F:\\UDACITY_NANO_BLOCK\\projectfolder\\eleven\\FlightSurety\\contracts\\FlightSuretyData.sol",
  "compiler": {
    "name": "solc",
    "version": "0.6.12+commit.27d51765.Emscripten.clang"
  },
  "schemaVersion": "3.3.3",
  "updatedAt": "2021-08-26T07:03:10.049Z",
  "devdoc": {
    "kind": "dev",
    "methods": {
      "_pay(address)": {
        "details": "Transfers eligible payout funds to insuree"
      },
      "buy(address,string,uint256,address)": {
        "details": "Buy insurance for a flight"
      },
      "constructor": {
        "details": "Constructor      The deploying account becomes contractOwner"
      },
      "creditInsurees(address,string,uint256)": {
        "details": "Credits payouts to insurees"
      },
      "fund(address)": {
        "details": "Initial funding for the insurance. Unless there are too many delayed flights      resulting in insurance payouts, the contract should be self-sustaining"
      },
      "getCredit(address)": {
        "details": "Returns credit of a passenger"
      },
      "getInsurance(address,address,string,uint256)": {
        "details": "Returns amount of passenger's insurance"
      },
      "isOperational()": {
        "details": "Get operating status of contract",
        "returns": {
          "_0": "A bool that is the current operating status"
        }
      },
      "registerAirline()": {
        "details": "Add an airline to the registration queue      Can only be called from FlightSuretyApp contract"
      },
      "setOperatingStatus(bool)": {
        "details": "Sets contract operations on/off When operational mode is disabled, all write transactions except for this one will fail"
      }
    },
    "version": 1
  },
  "userdoc": {
    "kind": "user",
    "methods": {},
    "version": 1
  }
}