{
  "contractName": "FlightSuretyApp",
  "abi": [
    {
      "inputs": [
        {
          "internalType": "address",
          "name": "dataContractAddress",
          "type": "address"
        },
        {
          "internalType": "address",
          "name": "firstAirline",
          "type": "address"
        }
      ],
      "stateMutability": "nonpayable",
      "type": "constructor"
    },
    {
      "anonymous": false,
      "inputs": [
        {
          "indexed": false,
          "internalType": "address",
          "name": "airline",
          "type": "address"
        },
        {
          "indexed": false,
          "internalType": "string",
          "name": "flight",
          "type": "string"
        },
        {
          "indexed": false,
          "internalType": "uint256",
          "name": "timestamp",
          "type": "uint256"
        },
        {
          "indexed": false,
          "internalType": "uint8",
          "name": "status",
          "type": "uint8"
        }
      ],
      "name": "FlightStatusInfo",
      "type": "event"
    },
    {
      "anonymous": false,
      "inputs": [
        {
          "indexed": false,
          "internalType": "address",
          "name": "airline",
          "type": "address"
        },
        {
          "indexed": false,
          "internalType": "string",
          "name": "flight",
          "type": "string"
        },
        {
          "indexed": false,
          "internalType": "uint256",
          "name": "timestamp",
          "type": "uint256"
        },
        {
          "indexed": false,
          "internalType": "uint8",
          "name": "status",
          "type": "uint8"
        }
      ],
      "name": "OracleReport",
      "type": "event"
    },
    {
      "anonymous": false,
      "inputs": [
        {
          "indexed": false,
          "internalType": "uint8",
          "name": "index",
          "type": "uint8"
        },
        {
          "indexed": false,
          "internalType": "address",
          "name": "airline",
          "type": "address"
        },
        {
          "indexed": false,
          "internalType": "string",
          "name": "flight",
          "type": "string"
        },
        {
          "indexed": false,
          "internalType": "uint256",
          "name": "timestamp",
          "type": "uint256"
        }
      ],
      "name": "OracleRequest",
      "type": "event"
    },
    {
      "stateMutability": "nonpayable",
      "type": "fallback"
    },
    {
      "inputs": [],
      "name": "REGISTRATION_FEE",
      "outputs": [
        {
          "internalType": "uint256",
          "name": "",
          "type": "uint256"
        }
      ],
      "stateMutability": "view",
      "type": "function"
    },
    {
      "inputs": [],
      "name": "isOperational",
      "outputs": [
        {
          "internalType": "bool",
          "name": "",
          "type": "bool"
        }
      ],
      "stateMutability": "view",
      "type": "function"
    },
    {
      "inputs": [
        {
          "internalType": "bool",
          "name": "mode",
          "type": "bool"
        }
      ],
      "name": "setOperatingStatus",
      "outputs": [],
      "stateMutability": "nonpayable",
      "type": "function"
    },
    {
      "inputs": [
        {
          "internalType": "address",
          "name": "airline",
          "type": "address"
        }
      ],
      "name": "registerAirline",
      "outputs": [
        {
          "internalType": "bool",
          "name": "success",
          "type": "bool"
        },
        {
          "internalType": "uint256",
          "name": "votes",
          "type": "uint256"
        }
      ],
      "stateMutability": "nonpayable",
      "type": "function"
    },
    {
      "inputs": [
        {
          "internalType": "address",
          "name": "airline",
          "type": "address"
        }
      ],
      "name": "registerFlight",
      "outputs": [],
      "stateMutability": "pure",
      "type": "function"
    },
    {
      "inputs": [],
      "name": "newfund",
      "outputs": [],
      "stateMutability": "payable",
      "type": "function"
    },
    {
      "inputs": [
        {
          "internalType": "address",
          "name": "airline",
          "type": "address"
        }
      ],
      "name": "isFundedAirline",
      "outputs": [
        {
          "internalType": "bool",
          "name": "",
          "type": "bool"
        }
      ],
      "stateMutability": "view",
      "type": "function"
    },
    {
      "inputs": [],
      "name": "getAirlines",
      "outputs": [
        {
          "internalType": "address[]",
          "name": "",
          "type": "address[]"
        }
      ],
      "stateMutability": "view",
      "type": "function"
    },
    {
      "inputs": [
        {
          "internalType": "address",
          "name": "airline",
          "type": "address"
        }
      ],
      "name": "getAirlineStatus",
      "outputs": [
        {
          "internalType": "uint8",
          "name": "",
          "type": "uint8"
        }
      ],
      "stateMutability": "view",
      "type": "function"
    },
    {
      "inputs": [
        {
          "internalType": "address",
          "name": "airline",
          "type": "address"
        }
      ],
      "name": "isRegisteredAirline",
      "outputs": [
        {
          "internalType": "bool",
          "name": "",
          "type": "bool"
        }
      ],
      "stateMutability": "view",
      "type": "function"
    },
    {
      "inputs": [
        {
          "internalType": "address",
          "name": "airline",
          "type": "address"
        }
      ],
      "name": "isAirlineRegistryinProcess",
      "outputs": [
        {
          "internalType": "bool",
          "name": "",
          "type": "bool"
        }
      ],
      "stateMutability": "view",
      "type": "function"
    },
    {
      "inputs": [
        {
          "internalType": "address",
          "name": "airline",
          "type": "address"
        },
        {
          "internalType": "string",
          "name": "flight",
          "type": "string"
        },
        {
          "internalType": "uint256",
          "name": "timestamp",
          "type": "uint256"
        }
      ],
      "name": "fetchFlightStatus",
      "outputs": [],
      "stateMutability": "nonpayable",
      "type": "function"
    },
    {
      "inputs": [
        {
          "internalType": "address",
          "name": "airline",
          "type": "address"
        },
        {
          "internalType": "string",
          "name": "flight",
          "type": "string"
        },
        {
          "internalType": "uint256",
          "name": "timestamp",
          "type": "uint256"
        }
      ],
      "name": "buy",
      "outputs": [],
      "stateMutability": "payable",
      "type": "function"
    },
    {
      "inputs": [],
      "name": "pay",
      "outputs": [],
      "stateMutability": "nonpayable",
      "type": "function"
    },
    {
      "inputs": [],
      "name": "getCredit",
      "outputs": [
        {
          "internalType": "uint256",
          "name": "",
          "type": "uint256"
        }
      ],
      "stateMutability": "view",
      "type": "function"
    },
    {
      "inputs": [
        {
          "internalType": "address",
          "name": "airline",
          "type": "address"
        },
        {
          "internalType": "string",
          "name": "flight",
          "type": "string"
        },
        {
          "internalType": "uint256",
          "name": "timestamp",
          "type": "uint256"
        }
      ],
      "name": "getInsurance",
      "outputs": [
        {
          "internalType": "uint256",
          "name": "",
          "type": "uint256"
        }
      ],
      "stateMutability": "view",
      "type": "function"
    },
    {
      "inputs": [],
      "name": "registerOracle",
      "outputs": [],
      "stateMutability": "payable",
      "type": "function"
    },
    {
      "inputs": [],
      "name": "getMyIndexes",
      "outputs": [
        {
          "internalType": "uint8[3]",
          "name": "",
          "type": "uint8[3]"
        }
      ],
      "stateMutability": "view",
      "type": "function"
    },
    {
      "inputs": [
        {
          "internalType": "uint8",
          "name": "index",
          "type": "uint8"
        },
        {
          "internalType": "address",
          "name": "airline",
          "type": "address"
        },
        {
          "internalType": "string",
          "name": "flight",
          "type": "string"
        },
        {
          "internalType": "uint256",
          "name": "timestamp",
          "type": "uint256"
        },
        {
          "internalType": "uint8",
          "name": "statusCode",
          "type": "uint8"
        }
      ],
      "name": "submitOracleResponse",
      "outputs": [],
      "stateMutability": "nonpayable",
      "type": "function"
    }
  ],
  "bytecode": "0x60806040526001600260006101000a81548160ff021916908315150217905550600067ffffffffffffffff811180156200003857600080fd5b50604051908082528060200260200182016040528015620000685781602001602082028036833780820191505090505b50600490805190602001906200008092919062000453565b5060fa600760006101000a81548160ff021916908360ff160217905550348015620000aa57600080fd5b50604051620031c5380380620031c583398181016040526040811015620000d057600080fd5b810190808051906020019092919080519060200190929190505050600073ffffffffffffffffffffffffffffffffffffffff168273ffffffffffffffffffffffffffffffffffffffff1614156200012657600080fd5b336000806101000a81548173ffffffffffffffffffffffffffffffffffffffff021916908373ffffffffffffffffffffffffffffffffffffffff16021790555081600260016101000a81548173ffffffffffffffffffffffffffffffffffffffff021916908373ffffffffffffffffffffffffffffffffffffffff160217905550620001b8816200022460201b60201c565b506004819080600181540180825580915050600190039060005260206000200160009091909190916101000a81548173ffffffffffffffffffffffffffffffffffffffff021916908373ffffffffffffffffffffffffffffffffffffffff160217905550505062000561565b600060016200027f576040517f08c379a0000000000000000000000000000000000000000000000000000000008152600401808060200182810382526025815260200180620031a06025913960400191505060405180910390fd5b600060ff16600360008473ffffffffffffffffffffffffffffffffffffffff1673ffffffffffffffffffffffffffffffffffffffff16815260200190815260200160002060000160009054906101000a900460ff1660ff161480620003395750600a60ff16600360008473ffffffffffffffffffffffffffffffffffffffff1673ffffffffffffffffffffffffffffffffffffffff16815260200190815260200160002060000160009054906101000a900460ff1660ff16145b6200034357600080fd5b6014600360008473ffffffffffffffffffffffffffffffffffffffff1673ffffffffffffffffffffffffffffffffffffffff16815260200190815260200160002060000160006101000a81548160ff021916908360ff1602179055506005600081548092919060010191905055506000600660008473ffffffffffffffffffffffffffffffffffffffff1673ffffffffffffffffffffffffffffffffffffffff16815260200190815260200160002080549050146200044a57600660008373ffffffffffffffffffffffffffffffffffffffff1673ffffffffffffffffffffffffffffffffffffffff1681526020019081526020016000206000620004499190620004e2565b5b60019050919050565b828054828255906000526020600020908101928215620004cf579160200282015b82811115620004ce5782518260006101000a81548173ffffffffffffffffffffffffffffffffffffffff021916908373ffffffffffffffffffffffffffffffffffffffff1602179055509160200191906001019062000474565b5b509050620004de919062000505565b5090565b508054600082559060005260206000209081019062000502919062000542565b50565b5b808211156200053e57600081816101000a81549073ffffffffffffffffffffffffffffffffffffffff02191690555060010162000506565b5090565b5b808211156200055d57600081600090555060010162000543565b5090565b612c2f80620005716000396000f3fe6080604052600436106101185760003560e01c8063a78d9799116100a0578063c10f270011610064578063c10f27001461061e578063caefff411461072a578063cd905dff14610791578063f3ba4e1b146107be578063f83f11c01461082557610119565b8063a78d979914610354578063aff1983b146103bb578063b1c46d22146104c1578063bc70b4df146105a6578063bdfd9877146105b057610119565b806357721fee116100e757806357721fee146101f257806359296e7b1461025a5780635f1cc0e61461028557806364b4f751146102d85780638e80c9691461030357610119565b80630d5dc05414610128578063110466ed146101945780631b9265b8146101d1578063339d2590146101e857610119565b5b34801561012557600080fd5b50005b34801561013457600080fd5b5061013d610917565b6040518080602001828103825283818151815260200191508051906020019060200280838360005b83811015610180578082015181840152602081019050610165565b505050509050019250505060405180910390f35b3480156101a057600080fd5b506101cf600480360360208110156101b757600080fd5b810190808035151590602001909291905050506109a5565b005b3480156101dd57600080fd5b506101e6610a83565b005b6101f0610b28565b005b3480156101fe57600080fd5b506102416004803603602081101561021557600080fd5b81019080803573ffffffffffffffffffffffffffffffffffffffff169060200190929190505050610c4e565b604051808260ff16815260200191505060405180910390f35b34801561026657600080fd5b5061026f610ca7565b6040518082815260200191505060405180910390f35b34801561029157600080fd5b5061029a610d72565b6040518082600360200280838360005b838110156102c55780820151818401526020810190506102aa565b5050505090500191505060405180910390f35b3480156102e457600080fd5b506102ed610ee5565b6040518082815260200191505060405180910390f35b34801561030f57600080fd5b506103526004803603602081101561032657600080fd5b81019080803573ffffffffffffffffffffffffffffffffffffffff169060200190929190505050610ef1565b005b34801561036057600080fd5b506103a36004803603602081101561037757600080fd5b81019080803573ffffffffffffffffffffffffffffffffffffffff169060200190929190505050610ef4565b60405180821515815260200191505060405180910390f35b3480156103c757600080fd5b506104ab600480360360608110156103de57600080fd5b81019080803573ffffffffffffffffffffffffffffffffffffffff1690602001909291908035906020019064010000000081111561041b57600080fd5b82018360208201111561042d57600080fd5b8035906020019184600183028401116401000000008311171561044f57600080fd5b91908080601f016020809104026020016040519081016040528093929190818152602001838380828437600081840152601f19601f82011690508083019250505050505050919291929080359060200190929190505050610f56565b6040518082815260200191505060405180910390f35b6105a4600480360360608110156104d757600080fd5b81019080803573ffffffffffffffffffffffffffffffffffffffff1690602001909291908035906020019064010000000081111561051457600080fd5b82018360208201111561052657600080fd5b8035906020019184600183028401116401000000008311171561054857600080fd5b91908080601f016020809104026020016040519081016040528093929190818152602001838380828437600081840152601f19601f820116905080830192505050505050509192919290803590602001909291905050506110b8565b005b6105ae61126b565b005b3480156105bc57600080fd5b506105ff600480360360208110156105d357600080fd5b81019080803573ffffffffffffffffffffffffffffffffffffffff1690602001909291905050506114a3565b6040518083151581526020018281526020019250505060405180910390f35b34801561062a57600080fd5b50610728600480360360a081101561064157600080fd5b81019080803560ff169060200190929190803573ffffffffffffffffffffffffffffffffffffffff1690602001909291908035906020019064010000000081111561068b57600080fd5b82018360208201111561069d57600080fd5b803590602001918460018302840111640100000000831117156106bf57600080fd5b91908080601f016020809104026020016040519081016040528093929190818152602001838380828437600081840152601f19601f82011690508083019250505050505050919291929080359060200190929190803560ff169060200190929190505050611c77565b005b34801561073657600080fd5b506107796004803603602081101561074d57600080fd5b81019080803573ffffffffffffffffffffffffffffffffffffffff1690602001909291905050506121b9565b60405180821515815260200191505060405180910390f35b34801561079d57600080fd5b506107a661221b565b60405180821515815260200191505060405180910390f35b3480156107ca57600080fd5b5061080d600480360360208110156107e157600080fd5b81019080803573ffffffffffffffffffffffffffffffffffffffff169060200190929190505050612232565b60405180821515815260200191505060405180910390f35b34801561083157600080fd5b506109156004803603606081101561084857600080fd5b81019080803573ffffffffffffffffffffffffffffffffffffffff1690602001909291908035906020019064010000000081111561088557600080fd5b82018360208201111561089757600080fd5b803590602001918460018302840111640100000000831117156108b957600080fd5b91908080601f016020809104026020016040519081016040528093929190818152602001838380828437600081840152601f19601f82011690508083019250505050505050919291929080359060200190929190505050612294565b005b6060600480548060200260200160405190810160405280929190818152602001828054801561099b57602002820191906000526020600020905b8160009054906101000a900473ffffffffffffffffffffffffffffffffffffffff1673ffffffffffffffffffffffffffffffffffffffff1681526020019060010190808311610951575b5050505050905090565b60008054906101000a900473ffffffffffffffffffffffffffffffffffffffff1673ffffffffffffffffffffffffffffffffffffffff163373ffffffffffffffffffffffffffffffffffffffff1614610a66576040517f08c379a000000000000000000000000000000000000000000000000000000000815260040180806020018281038252601c8152602001807f43616c6c6572206973206e6f7420636f6e7472616374206f776e65720000000081525060200191505060405180910390fd5b80600260006101000a81548160ff02191690831515021790555050565b600260019054906101000a900473ffffffffffffffffffffffffffffffffffffffff1673ffffffffffffffffffffffffffffffffffffffff1663810f2811336040518263ffffffff1660e01b8152600401808273ffffffffffffffffffffffffffffffffffffffff168152602001915050600060405180830381600087803b158015610b0e57600080fd5b505af1158015610b22573d6000803e3d6000fd5b50505050565b670de0b6b3a7640000341015610ba6576040517f08c379a000000000000000000000000000000000000000000000000000000000815260040180806020018281038252601c8152602001807f526567697374726174696f6e206665652069732072657175697265640000000081525060200191505060405180910390fd5b610bae612976565b610bb7336124cd565b9050604051806040016040528060011515815260200182815250600860003373ffffffffffffffffffffffffffffffffffffffff1673ffffffffffffffffffffffffffffffffffffffff16815260200190815260200160002060008201518160000160006101000a81548160ff021916908315150217905550602082015181600101906003610c47929190612998565b5090505050565b6000600360008373ffffffffffffffffffffffffffffffffffffffff1673ffffffffffffffffffffffffffffffffffffffff16815260200190815260200160002060000160009054906101000a900460ff169050919050565b6000600260019054906101000a900473ffffffffffffffffffffffffffffffffffffffff1673ffffffffffffffffffffffffffffffffffffffff166357344e6f336040518263ffffffff1660e01b8152600401808273ffffffffffffffffffffffffffffffffffffffff16815260200191505060206040518083038186803b158015610d3257600080fd5b505afa158015610d46573d6000803e3d6000fd5b505050506040513d6020811015610d5c57600080fd5b8101908080519060200190929190505050905090565b610d7a612976565b600860003373ffffffffffffffffffffffffffffffffffffffff1673ffffffffffffffffffffffffffffffffffffffff16815260200190815260200160002060000160009054906101000a900460ff16610e3c576040517f08c379a000000000000000000000000000000000000000000000000000000000815260040180806020018281038252601b8152602001807f4e6f74207265676973746572656420617320616e206f7261636c65000000000081525060200191505060405180910390fd5b600860003373ffffffffffffffffffffffffffffffffffffffff1673ffffffffffffffffffffffffffffffffffffffff168152602001908152602001600020600101600380602002604051908101604052809291908260038015610edb576020028201916000905b82829054906101000a900460ff1660ff1681526020019060010190602082600001049283019260010382029150808411610ea45790505b5050505050905090565b670de0b6b3a764000081565b50565b6000601460ff16600360008473ffffffffffffffffffffffffffffffffffffffff1673ffffffffffffffffffffffffffffffffffffffff16815260200190815260200160002060000160009054906101000a900460ff1660ff16149050919050565b6000600260019054906101000a900473ffffffffffffffffffffffffffffffffffffffff1673ffffffffffffffffffffffffffffffffffffffff166350cf1667338686866040518563ffffffff1660e01b8152600401808573ffffffffffffffffffffffffffffffffffffffff1681526020018473ffffffffffffffffffffffffffffffffffffffff16815260200180602001838152602001828103825284818151815260200191508051906020019080838360005b8381101561102757808201518184015260208101905061100c565b50505050905090810190601f1680156110545780820380516001836020036101000a031916815260200191505b509550505050505060206040518083038186803b15801561107457600080fd5b505afa158015611088573d6000803e3d6000fd5b505050506040513d602081101561109e57600080fd5b810190808051906020019092919050505090509392505050565b670de0b6b3a76400003411156110cd57600080fd5b601e60ff16600360008573ffffffffffffffffffffffffffffffffffffffff1673ffffffffffffffffffffffffffffffffffffffff16815260200190815260200160002060000160009054906101000a900460ff1660ff161461112f57600080fd5b600260019054906101000a900473ffffffffffffffffffffffffffffffffffffffff1673ffffffffffffffffffffffffffffffffffffffff16634f253f6e34858585336040518663ffffffff1660e01b8152600401808573ffffffffffffffffffffffffffffffffffffffff168152602001806020018481526020018373ffffffffffffffffffffffffffffffffffffffff168152602001828103825285818151815260200191508051906020019080838360005b838110156111ff5780820151818401526020810190506111e4565b50505050905090810190601f16801561122c5780820380516001836020036101000a031916815260200191505b50955050505050506000604051808303818588803b15801561124d57600080fd5b505af1158015611261573d6000803e3d6000fd5b5050505050505050565b60016112c2576040517f08c379a0000000000000000000000000000000000000000000000000000000008152600401808060200182810382526025815260200180612bb26025913960400191505060405180910390fd5b601460ff16600360003373ffffffffffffffffffffffffffffffffffffffff1673ffffffffffffffffffffffffffffffffffffffff16815260200190815260200160002060000160009054906101000a900460ff1660ff161461138d576040517f08c379a00000000000000000000000000000000000000000000000000000000081526004018080602001828103825260208152602001807f43616c6c6572206973206e6f742072656769737465726564206169726c696e6581525060200191505060405180910390fd5b678ac7230489e8000034146113a157600080fd5b601e600360003373ffffffffffffffffffffffffffffffffffffffff1673ffffffffffffffffffffffffffffffffffffffff16815260200190815260200160002060000160006101000a81548160ff021916908360ff160217905550600260019054906101000a900473ffffffffffffffffffffffffffffffffffffffff1673ffffffffffffffffffffffffffffffffffffffff16632302440834336040518363ffffffff1660e01b8152600401808273ffffffffffffffffffffffffffffffffffffffff1681526020019150506000604051808303818588803b15801561148857600080fd5b505af115801561149c573d6000803e3d6000fd5b5050505050565b60008060016114fd576040517f08c379a0000000000000000000000000000000000000000000000000000000008152600401808060200182810382526025815260200180612bb26025913960400191505060405180910390fd5b601e60ff16600360003373ffffffffffffffffffffffffffffffffffffffff1673ffffffffffffffffffffffffffffffffffffffff16815260200190815260200160002060000160009054906101000a900460ff1660ff16146115ab576040517f08c379a0000000000000000000000000000000000000000000000000000000008152600401808060200182810382526025815260200180612b8d6025913960400191505060405180910390fd5b600060ff16600360008573ffffffffffffffffffffffffffffffffffffffff1673ffffffffffffffffffffffffffffffffffffffff16815260200190815260200160002060000160009054906101000a900460ff1660ff1614156116f4576040518060400160405280600060ff1681526020016000815250600360008573ffffffffffffffffffffffffffffffffffffffff1673ffffffffffffffffffffffffffffffffffffffff16815260200190815260200160002060008201518160000160006101000a81548160ff021916908360ff160217905550602082015181600101559050506004839080600181540180825580915050600190039060005260206000200160009091909190916101000a81548173ffffffffffffffffffffffffffffffffffffffff021916908373ffffffffffffffffffffffffffffffffffffffff1602179055505b600460ff16600554101561176e5761170b83612659565b91506014600360008573ffffffffffffffffffffffffffffffffffffffff1673ffffffffffffffffffffffffffffffffffffffff16815260200190815260200160002060000160006101000a81548160ff021916908360ff160217905550611c72565b6000600660008573ffffffffffffffffffffffffffffffffffffffff1673ffffffffffffffffffffffffffffffffffffffff16815260200190815260200160002080549050905060008114156119a957600067ffffffffffffffff811180156117d657600080fd5b506040519080825280602002602001820160405280156118055781602001602082028036833780820191505090505b50600660008673ffffffffffffffffffffffffffffffffffffffff1673ffffffffffffffffffffffffffffffffffffffff1681526020019081526020016000209080519060200190611858929190612a32565b50600660008573ffffffffffffffffffffffffffffffffffffffff1673ffffffffffffffffffffffffffffffffffffffff168152602001908152602001600020339080600181540180825580915050600190039060005260206000200160009091909190916101000a81548173ffffffffffffffffffffffffffffffffffffffff021916908373ffffffffffffffffffffffffffffffffffffffff1602179055506000925060019150600a600360008673ffffffffffffffffffffffffffffffffffffffff1673ffffffffffffffffffffffffffffffffffffffff16815260200190815260200160002060000160006101000a81548160ff021916908360ff16021790555081600360008673ffffffffffffffffffffffffffffffffffffffff1673ffffffffffffffffffffffffffffffffffffffff16815260200190815260200160002060010181905550611c70565b60005b81811015611a6e573373ffffffffffffffffffffffffffffffffffffffff16600660008773ffffffffffffffffffffffffffffffffffffffff1673ffffffffffffffffffffffffffffffffffffffff1681526020019081526020016000208281548110611a1557fe5b9060005260206000200160009054906101000a900473ffffffffffffffffffffffffffffffffffffffff1673ffffffffffffffffffffffffffffffffffffffff161415611a6157611a6e565b80806001019150506119ac565b81811415611b1757600660008673ffffffffffffffffffffffffffffffffffffffff1673ffffffffffffffffffffffffffffffffffffffff168152602001908152602001600020339080600181540180825580915050600190039060005260206000200160009091909190916101000a81548173ffffffffffffffffffffffffffffffffffffffff021916908373ffffffffffffffffffffffffffffffffffffffff1602179055505b600660008673ffffffffffffffffffffffffffffffffffffffff1673ffffffffffffffffffffffffffffffffffffffff168152602001908152602001600020805490509250600260055481611b6857fe5b048310611c2257611b7885612659565b93506014600360008773ffffffffffffffffffffffffffffffffffffffff1673ffffffffffffffffffffffffffffffffffffffff16815260200190815260200160002060000160006101000a81548160ff021916908360ff16021790555082600360008773ffffffffffffffffffffffffffffffffffffffff1673ffffffffffffffffffffffffffffffffffffffff16815260200190815260200160002060010181905550611c6e565b6000935082600360008773ffffffffffffffffffffffffffffffffffffffff1673ffffffffffffffffffffffffffffffffffffffff168152602001908152602001600020600101819055505b505b505b915091565b8460ff16600860003373ffffffffffffffffffffffffffffffffffffffff1673ffffffffffffffffffffffffffffffffffffffff168152602001908152602001600020600101600060038110611cc957fe5b602091828204019190069054906101000a900460ff1660ff161480611d5657508460ff16600860003373ffffffffffffffffffffffffffffffffffffffff1673ffffffffffffffffffffffffffffffffffffffff168152602001908152602001600020600101600160038110611d3b57fe5b602091828204019190069054906101000a900460ff1660ff16145b80611dc957508460ff16600860003373ffffffffffffffffffffffffffffffffffffffff1673ffffffffffffffffffffffffffffffffffffffff168152602001908152602001600020600101600260038110611dae57fe5b602091828204019190069054906101000a900460ff1660ff16145b611e1e576040517f08c379a0000000000000000000000000000000000000000000000000000000008152600401808060200182810382526023815260200180612bd76023913960400191505060405180910390fd5b600085858585604051602001808560ff1660f81b81526001018473ffffffffffffffffffffffffffffffffffffffff1660601b815260140183805190602001908083835b60208310611e855780518252602082019150602081019050602083039250611e62565b6001836020036101000a0380198251168184511680821785525050505050509050018281526020019450505050506040516020818303038152906040528051906020012090506009600082815260200190815260200160002060000160149054906101000a900460ff16611f44576040517f08c379a000000000000000000000000000000000000000000000000000000000815260040180806020018281038252602f815260200180612b5e602f913960400191505060405180910390fd5b6009600082815260200190815260200160002060010160008360ff1660ff168152602001908152602001600020339080600181540180825580915050600190039060005260206000200160009091909190916101000a81548173ffffffffffffffffffffffffffffffffffffffff021916908373ffffffffffffffffffffffffffffffffffffffff1602179055507f43c853095c2752648493c88b4baac4d580d2594ffb00c6f1d4242d844514f78385858585604051808573ffffffffffffffffffffffffffffffffffffffff168152602001806020018481526020018360ff168152602001828103825285818151815260200191508051906020019080838360005b83811015612062578082015181840152602081019050612047565b50505050905090810190601f16801561208f5780820380516001836020036101000a031916815260200191505b509550505050505060405180910390a160036009600083815260200190815260200160002060010160008460ff1660ff16815260200190815260200160002080549050106121b1577fe23f5229de535c091e3b7bec2665f5d698192d3b31393066e8987b7a05076b6c85858585604051808573ffffffffffffffffffffffffffffffffffffffff168152602001806020018481526020018360ff168152602001828103825285818151815260200191508051906020019080838360005b8381101561216757808201518184015260208101905061214c565b50505050905090810190601f1680156121945780820380516001836020036101000a031916815260200191505b509550505050505060405180910390a16121b085858585612881565b5b505050505050565b6000600a60ff16600360008473ffffffffffffffffffffffffffffffffffffffff1673ffffffffffffffffffffffffffffffffffffffff16815260200190815260200160002060000160009054906101000a900460ff1660ff16149050919050565b6000600260009054906101000a900460ff16905090565b6000601e60ff16600360008473ffffffffffffffffffffffffffffffffffffffff1673ffffffffffffffffffffffffffffffffffffffff16815260200190815260200160002060000160009054906101000a900460ff1660ff16149050919050565b600061229f3361289c565b9050600081858585604051602001808560ff1660f81b81526001018473ffffffffffffffffffffffffffffffffffffffff1660601b815260140183805190602001908083835b6020831061230857805182526020820191506020810190506020830392506122e5565b6001836020036101000a03801982511681845116808217855250505050505090500182815260200194505050505060405160208183030381529060405280519060200120905060405180604001604052803373ffffffffffffffffffffffffffffffffffffffff168152602001600115158152506009600083815260200190815260200160002060008201518160000160006101000a81548173ffffffffffffffffffffffffffffffffffffffff021916908373ffffffffffffffffffffffffffffffffffffffff16021790555060208201518160000160146101000a81548160ff0219169083151502179055509050507f3ed01f2c3fc24c6b329d931e35b03e390d23497d22b3f90e15b600343e93df1182868686604051808560ff1681526020018473ffffffffffffffffffffffffffffffffffffffff16815260200180602001838152602001828103825284818151815260200191508051906020019080838360005b8381101561248957808201518184015260208101905061246e565b50505050905090810190601f1680156124b65780820380516001836020036101000a031916815260200191505b509550505050505060405180910390a15050505050565b6124d5612976565b6124dd612976565b6124e68361289c565b816000600381106124f357fe5b602002019060ff16908160ff16815250508060006003811061251157fe5b60200201518160016003811061252357fe5b602002019060ff16908160ff16815250505b8060006003811061254257fe5b602002015160ff168160016003811061255757fe5b602002015160ff1614156125915761256e8361289c565b8160016003811061257b57fe5b602002019060ff16908160ff1681525050612535565b8060016003811061259e57fe5b6020020151816002600381106125b057fe5b602002019060ff16908160ff16815250505b806000600381106125cf57fe5b602002015160ff16816002600381106125e457fe5b602002015160ff16148061261f57508060016003811061260057fe5b602002015160ff168160026003811061261557fe5b602002015160ff16145b156126505761262d8361289c565b8160026003811061263a57fe5b602002019060ff16908160ff16815250506125c2565b80915050919050565b600060016126b2576040517f08c379a0000000000000000000000000000000000000000000000000000000008152600401808060200182810382526025815260200180612bb26025913960400191505060405180910390fd5b600060ff16600360008473ffffffffffffffffffffffffffffffffffffffff1673ffffffffffffffffffffffffffffffffffffffff16815260200190815260200160002060000160009054906101000a900460ff1660ff16148061276b5750600a60ff16600360008473ffffffffffffffffffffffffffffffffffffffff1673ffffffffffffffffffffffffffffffffffffffff16815260200190815260200160002060000160009054906101000a900460ff1660ff16145b61277457600080fd5b6014600360008473ffffffffffffffffffffffffffffffffffffffff1673ffffffffffffffffffffffffffffffffffffffff16815260200190815260200160002060000160006101000a81548160ff021916908360ff1602179055506005600081548092919060010191905055506000600660008473ffffffffffffffffffffffffffffffffffffffff1673ffffffffffffffffffffffffffffffffffffffff168152602001908152602001600020805490501461287857600660008373ffffffffffffffffffffffffffffffffffffffff1673ffffffffffffffffffffffffffffffffffffffff16815260200190815260200160002060006128779190612abc565b5b60019050919050565b600060ff168160ff16141561289557612896565b5b50505050565b600080600a905060008160ff166007600081819054906101000a900460ff168092919060010191906101000a81548160ff021916908360ff16021790555060ff1643034085604051602001808381526020018273ffffffffffffffffffffffffffffffffffffffff1660601b8152601401925050506040516020818303038152906040528051906020012060001c8161293157fe5b06905060fa600760009054906101000a900460ff1660ff16111561296c576000600760006101000a81548160ff021916908360ff1602179055505b8092505050919050565b6040518060600160405280600390602082028036833780820191505090505090565b826003601f01602090048101928215612a215791602002820160005b838211156129f257835183826101000a81548160ff021916908360ff16021790555092602001926001016020816000010492830192600103026129b4565b8015612a1f5782816101000a81549060ff02191690556001016020816000010492830192600103026129f2565b505b509050612a2e9190612add565b5090565b828054828255906000526020600020908101928215612aab579160200282015b82811115612aaa5782518260006101000a81548173ffffffffffffffffffffffffffffffffffffffff021916908373ffffffffffffffffffffffffffffffffffffffff16021790555091602001919060010190612a52565b5b509050612ab89190612b05565b5090565b5080546000825590600052602060002090810190612ada9190612b40565b50565b5b80821115612b0157600081816101000a81549060ff021916905550600101612ade565b5090565b5b80821115612b3c57600081816101000a81549073ffffffffffffffffffffffffffffffffffffffff021916905550600101612b06565b5090565b5b80821115612b59576000816000905550600101612b41565b509056fe466c69676874206f722074696d657374616d7020646f206e6f74206d61746368206f7261636c65207265717565737443616c6c6572206f6620617070206973206e6f7420612066756e646564206169726c696e65436f6e74726163742069732063757272656e746c79206e6f74206f7065726174696f6e616c496e64657820646f6573206e6f74206d61746368206f7261636c652072657175657374a2646970667358221220756fb20a80c208334a2d60e16321f54a7b5b886d67a7efd6eec84630adc9ea8964736f6c634300060c0033436f6e74726163742069732063757272656e746c79206e6f74206f7065726174696f6e616c",
  "immutableReferences": {},
  "source": "// SPDX-License-Identifier: MIT\n\npragma solidity >=0.6.0 <0.8.0;\nimport \"./FlightSuretyData.sol\";\n\n\n// It's important to avoid vulnerabilities due to numeric overflow bugs\n// OpenZeppelin's SafeMath library, when used correctly, protects agains such bugs\n// More info: https://www.nccgroup.trust/us/about-us/newsroom-and-events/blog/2018/november/smart-contract-insecurity-bad-arithmetic/\n\nimport \"../node_modules/@openzeppelin/contracts/math/SafeMath.sol\";\n/************************************************** */\n/* FlightSurety Smart Contract                      */\n/************************************************** */\ncontract FlightSuretyApp {\n    using SafeMath for uint256; // Allow SafeMath functions to be called for all uint256 types (similar to \"prototype\" in Javascript)\n\n    /********************************************************************************************/\n    /*                                       DATA VARIABLES                                     */\n    /********************************************************************************************/\n\n    // Flight status codes\n    uint8 private constant STATUS_CODE_UNKNOWN = 0;\n    uint8 private constant STATUS_CODE_ON_TIME = 10;\n    uint8 private constant STATUS_CODE_LATE_AIRLINE = 20;\n    uint8 private constant STATUS_CODE_LATE_WEATHER = 30;\n    uint8 private constant STATUS_CODE_LATE_TECHNICAL = 40;\n    uint8 private constant STATUS_CODE_LATE_OTHER = 50;\n\n\n    uint8 private constant REGISTERED = 20;\n      // Airlines satus codes\n    uint8 private constant UN_REGISTERED = 0; // this must be 0\n    uint8 private constant S_IN_PROCESS = 10;\n   \n\n    address private contractOwner;          // Account used to deploy contract\n     uint8 private constant FUNDED = 30;\n\n    struct Flight {\n        bool isRegistered;\n        uint8 statusCode;\n        uint256 updatedTimestamp;        \n        address airline;\n    }\n\n    mapping(bytes32 => Flight) private flights;\n    //flight operations status\n    bool private operational = true;\n\n    FlightSuretyData private flight_SuretyData;  \n\n    /////Airlines structure defined/////\n\n       struct Airline {\n        uint8 status;\n        uint256 votes;\n    }\n    // airlines Mapper\n    mapping(address => Airline) private mapAirlines;\n    // all airlines arrY\n    address[] private airlines_arr = new address[](0); \n\n    // max number of airlines when 50% multiparty consensus required\n    uint8 private constant MAX_NO_BEFORE_CONSENSUS = 4;\n\n\n    uint256 private num_Airlines_Consensus;\n    // number of funded arilines\n\n    // mapping of airlines in the process of being registered\n    mapping(address => address[]) private inProcessAirlines;   \n \n    /********************************************************************************************/\n    /*                                       FUNCTION MODIFIERS                                 */\n    /********************************************************************************************/\n\n    // Modifiers help avoid duplication of code. They are typically used to validate something\n    // before a function is allowed to be executed.\n\n    /**\n    * @dev Modifier that requires the \"operational\" boolean variable to be \"true\"\n    *      This is used on all state changing functions to pause the contract in \n    *      the event there is an issue that needs to be fixed\n    */\n    modifier requireIsOperational() \n    {\n         // Modify to call data contract's status\n        require(true, \"Contract is currently not operational\");  \n        _;  // All modifiers require an \"_\" which indicates where the function body will be added\n    }\n\n    /**\n    * @dev Modifier that requires the \"ContractOwner\" account to be the function caller\n    */\n    modifier requireContractOwner()\n    {\n        require(msg.sender == contractOwner, \"Caller is not contract owner\");\n        _;\n    }\n\n      /// @dev Modifier that requires the caller to be a funded with some amount (10ETH)\n    modifier requireFundedAirline(){\n        require(mapAirlines[msg.sender].status == FUNDED, \"Caller of app is not a funded airline\");\n        _;\n    }\n\n    \n    /**\n    * @dev Modifier that requires the \"caller\" also to be registered\n    */\n       modifier requireRegisteredAirline()\n    {\n        require(mapAirlines[msg.sender].status== REGISTERED, \"Caller is not registered airline\");\n        _;\n    }\n\n    /********************************************************************************************/\n    /*                                       CONSTRUCTOR                                        */\n    /********************************************************************************************/\n\n    /**\n    * @dev Contract constructor\n    *\n    */\n\n     constructor(address dataContractAddress, address firstAirline) public {\n        require(dataContractAddress != address(0));\n        contractOwner = msg.sender;\n        // initialize\n        flight_SuretyData = FlightSuretyData(dataContractAddress);  \n        // register first airline\n        AirlineRegistration(firstAirline);\n        // register first airline in arraylist \n        airlines_arr.push(firstAirline);\n    }\n     /**\n    * @dev Contract fallback\n    *\n    */\n\n     fallback() external {\n    }\n    /********************************************************************************************/\n    /*                                      UTILITY FUNCTIONS                                   */\n    /********************************************************************************************/\n\n    function isOperational() \n                            public \n                            view \n                            returns(bool) \n    {\n       return operational;  // Modify to call data contract's status\n    }\n\n\n    /// @dev Sets operations status (status)\n    function setOperatingStatus(bool mode) external requireContractOwner {\n        operational = mode;\n    }\n\n    /********************************************************************************************/\n    /*                                     SMART CONTRACT FUNCTIONS                             */\n    /********************************************************************************************/\n   \n\n  \n\n\n /**\n    * @notice Attempts to register and airline. For the first MAX_NO_BEFORE_CONSENSUS\n    * airlines this is a simple request from a funded airline. After that it becomes a multiparty\n    * consensus where a number of funded airlines at least equal to 50% of the number of registered\n    * airlines need to request the airline registration.\n    \n    * @return success a bool indicating if the airline is registered\n    * @return votes a uint256 with the number of votes\n    */\n\n\n  /// @dev Registeration of an airline\n    function AirlineRegistration(address airline)\n        private \n        requireIsOperational  \n        returns(bool success)                         \n    {\n        \n        require(mapAirlines[airline].status == UN_REGISTERED || mapAirlines[airline].status == S_IN_PROCESS);\n        // set status airline registered\n        mapAirlines[airline].status = REGISTERED;\n        // increment number of airlines for checking Multipart consesus\n        num_Airlines_Consensus++;\n        if(inProcessAirlines[airline].length != 0)\n            delete inProcessAirlines[airline];\n        return true;\n    }\n  \n   /**\n    * @dev Add an airline to the registration queue\n    *\n    */   \n    function registerAirline\n                            (  address airline \n                            )\n                            external\n                            requireIsOperational\n                            requireFundedAirline\n                            returns(bool success, uint256 votes)\n    {\n        // return (success, 0);\n \n         // first time register the airline, passed\n        if(mapAirlines[airline].status == UN_REGISTERED){\n            mapAirlines[airline] = Airline({ status: UN_REGISTERED, votes : 0 });\n            airlines_arr.push(airline);        \n        }\n\n         // decide whether to use multiparty consensus or not\n         //if number is less than limit\n        if(num_Airlines_Consensus < MAX_NO_BEFORE_CONSENSUS){            \n            success = AirlineRegistration(airline);\n            mapAirlines[airline].status = REGISTERED;\n        }\n        //For Voting process\n        else{\n            uint256 VotesStats = inProcessAirlines[airline].length;\n            if(VotesStats == 0){\n                inProcessAirlines[airline] = new address[](0);\n                inProcessAirlines[airline].push(msg.sender);\n                success = false;\n                votes = 1;\n                mapAirlines[airline].status = S_IN_PROCESS;\n                mapAirlines[airline].votes = votes;\n               }\n\n           else{\n                    // no double voting by the same airline\n                uint256 count = 0;\n                for(; count < VotesStats; count++){\n                    if(inProcessAirlines[airline][count] == msg.sender) // check double voting \n                        break;\n                }\n                if(count == VotesStats) \n                    inProcessAirlines[airline].push(msg.sender); // add vote\n                // update votes\n                votes = inProcessAirlines[airline].length;\n\n               \n                if(votes >= num_Airlines_Consensus/2){\n                    //Airline voted success and registering airline\n                    success = AirlineRegistration(airline);\n                    mapAirlines[airline].status = REGISTERED;\n                    mapAirlines[airline].votes  = votes;\n                }else{\n                    success = false;\n                    mapAirlines[airline].votes  = votes;\n                }\n               }\n        }\n         return (success, votes);\n    }\n\n\n   /**\n    * @dev Register a future flight for insuring.\n    *\n    */  \n    function registerFlight\n                                (address airline\n                                )\n                                external\n                                pure\n    {\n\n    }\n\n  \n\n      /// @dev allow a registered airline to fund required\n      /// should be operational and registered  \n    function newfund()\n        external\n        payable\n        requireIsOperational    \n        requireRegisteredAirline\n    {\n        require(msg.value == 10 ether);\n        // update airline status\n        mapAirlines[msg.sender].status = FUNDED;\n\n        // forward funds to data contract\n        flight_SuretyData.fund{value:msg.value}(msg.sender);\n    }\n\n  //if funded\n    function isFundedAirline(address airline) external view returns(bool) {\n        return mapAirlines[airline].status == FUNDED;\n    }\n    // Return airlines  array\n    function getAirlines() external view returns(address[] memory) {\n        return airlines_arr;\n    }\n\n    // Return airline status\n    function getAirlineStatus(address airline) external view returns(uint8) {\n        return mapAirlines[airline].status;\n    }\n\n     // method to  check if an airline is registered (returns registered)\n    function isRegisteredAirline(address airline) external view returns(bool) {\n        return mapAirlines[airline].status == REGISTERED;\n    }\n\n    \n    // Check if an airline is in the registration process (returns inprocess)\n    function isAirlineRegistryinProcess(address airline) external view returns(bool) {\n        return  mapAirlines[airline].status == S_IN_PROCESS;\n    }\n\n   \n    \n   /**\n    * @dev Called after oracle has updated flight status\n    *\n    */  \n    function processFlightStatus\n                                (\n                                    address airline,\n                                    string memory flight,\n                                    uint256 timestamp,\n                                    uint8 statusCode\n                                )\n                                internal\n                                pure\n    {\n\n         if (statusCode == STATUS_CODE_UNKNOWN) {\n             return;\n         }\n        if (statusCode == STATUS_CODE_LATE_AIRLINE) {\n            //give some insurance \n        }\n        if (statusCode == STATUS_CODE_LATE_WEATHER){\n           //give some insurance \n        }\n        if (statusCode == STATUS_CODE_LATE_TECHNICAL){\n            //give some insurance \n        }\n        if (statusCode == STATUS_CODE_LATE_OTHER){\n           //give some insurance \n        }\n\n\n    }\n\n\n    // Generate a request for oracles to fetch flight information\n    function fetchFlightStatus\n                        (\n                            address airline,\n                            string memory flight,\n                            uint256 timestamp                            \n                        )\n                        external\n    {\n        uint8 index = getRandomIndex(msg.sender);\n\n        // Generate a unique key for storing the request\n        bytes32 key = keccak256(abi.encodePacked(index, airline, flight, timestamp));\n\n\n        oracleResponses[key] = ResponseInfo({\n                                                requester: msg.sender,\n                                                isOpen: true\n                                            });\n\n        emit OracleRequest(index, airline, flight, timestamp);\n    } \n    \n\n    //Passenger buy insuranvce\n\n        function buy(address airline, string memory flight, uint256 timestamp)\n        external\n        payable\n    {\n        // passenger to pay upto 1ether \n        require(msg.value <= 1 ether);\n        // check that the insurance is funded\n        require(mapAirlines[airline].status == FUNDED);\n        // call buy from  data contract and send funds\n\n\n        flight_SuretyData.buy{value:msg.value}(airline, flight, timestamp, msg.sender);        \n    }\n\n\n    //call pay function from data contract \n    function pay() external {        \n        flight_SuretyData._pay(msg.sender);\n    }\n\n    //return cretit to insurers\n    function getCredit() view external returns(uint256) {\n        return flight_SuretyData.getCredit(msg.sender);\n    }\n\n\n   // insurance get \n    function getInsurance(address airline, string memory flight, uint256 timestamp) view external returns(uint256) {\n        return flight_SuretyData.getInsurance(msg.sender, airline, flight, timestamp);\n    }\n\n\n   \n\n\n// region ORACLE MANAGEMENT\n\n    // Incremented to add pseudo-randomness at various points\n    // uint8 private nonce = 0;    \n    uint8 private nonce = 250;    \n\n    // Fee to be paid when registering oracle\n    uint256 public constant REGISTRATION_FEE = 1 ether;\n\n    // Number of oracles that must respond for valid status\n    uint256 private constant MIN_RESPONSES = 3;\n\n\n    struct Oracle {\n        bool isRegistered;\n        uint8[3] indexes;        \n    }\n\n    // Track all registered oracles\n    mapping(address => Oracle) private oracles;\n\n    // Model for responses from oracles\n    struct ResponseInfo {\n        address requester;                              // Account that requested status\n        bool isOpen;                                    // If open, oracle responses are accepted\n        mapping(uint8 => address[]) responses;          // Mapping key is the status code reported\n                                                        // This lets us group responses and identify\n                                                        // the response that majority of the oracles\n    }\n\n    // Track all oracle responses\n    // Key = hash(index, flight, timestamp)\n    mapping(bytes32 => ResponseInfo) private oracleResponses;\n\n    // Event fired each time an oracle submits a response\n    event FlightStatusInfo(address airline, string flight, uint256 timestamp, uint8 status);\n\n    event OracleReport(address airline, string flight, uint256 timestamp, uint8 status);\n\n    // Event fired when flight status request is submitted\n    // Oracles track this and if they have a matching index\n    // they fetch data and submit a response\n    event OracleRequest(uint8 index, address airline, string flight, uint256 timestamp);\n\n\n    // Register an oracle with the contract\n    function registerOracle\n                            (\n                            )\n                            external\n                            payable\n    {\n        // Require registration fee\n        require(msg.value >= REGISTRATION_FEE, \"Registration fee is required\");\n\n        uint8[3] memory indexes = generateIndexes(msg.sender);\n\n        oracles[msg.sender] = Oracle({\n                                        isRegistered: true,\n                                        indexes: indexes\n                                    });\n    }\n\n    function getMyIndexes\n                            (\n                            )\n                            view\n                            external\n                            returns(uint8[3] memory) \n    {\n        require(oracles[msg.sender].isRegistered, \"Not registered as an oracle\");\n\n        return oracles[msg.sender].indexes;\n    }\n\n\n\n\n    // Called by oracle when a response is available to an outstanding request\n    // For the response to be accepted, there must be a pending request that is open\n    // and matches one of the three Indexes randomly assigned to the oracle at the\n    // time of registration (i.e. uninvited oracles are not welcome)\n    function submitOracleResponse\n                        (\n                            uint8 index,\n                            address airline,\n                            string  memory flight ,\n                            uint256 timestamp,\n                            uint8 statusCode\n                        )\n                        external\n    {\n        require((oracles[msg.sender].indexes[0] == index) || (oracles[msg.sender].indexes[1] == index) || (oracles[msg.sender].indexes[2] == index), \"Index does not match oracle request\");\n\n\n        bytes32 key = keccak256(abi.encodePacked(index, airline, flight, timestamp)); \n        require(oracleResponses[key].isOpen, \"Flight or timestamp do not match oracle request\");\n\n        oracleResponses[key].responses[statusCode].push(msg.sender);\n\n        // Information isn't considered verified until at least MIN_RESPONSES\n        // oracles respond with the *** same *** information\n        emit OracleReport(airline, flight, timestamp, statusCode);\n        if (oracleResponses[key].responses[statusCode].length >= MIN_RESPONSES) {\n\n            emit FlightStatusInfo(airline, flight, timestamp, statusCode);\n\n            // Handle flight status as appropriate\n            processFlightStatus(airline, flight, timestamp, statusCode);\n\n        }\n    }\n\n   //return flight key generated\n    function getFlightKey\n                        (\n                            address airline,\n                            string memory flight,\n                            uint256 timestamp\n                        )\n                        pure\n                        internal\n                        returns(bytes32) \n    {\n        return keccak256(abi.encodePacked(airline, flight, timestamp));\n    }\n\n    // Returns array of three non-duplicating integers from 0-9\n    function generateIndexes\n                            (                       \n                                address account         \n                            )\n                            internal\n                            returns(uint8[3] memory)\n    {\n        uint8[3] memory indexes;\n        indexes[0] = getRandomIndex(account);\n        \n        indexes[1] = indexes[0];\n        while(indexes[1] == indexes[0]) {\n            indexes[1] = getRandomIndex(account);\n        }\n\n        indexes[2] = indexes[1];\n        while((indexes[2] == indexes[0]) || (indexes[2] == indexes[1])) {\n            indexes[2] = getRandomIndex(account);\n        }\n\n        return indexes;\n    }\n\n    // Returns array of three non-duplicating integers from 0-9\n    function getRandomIndex\n                            (\n                                address account\n                            )\n                            internal\n                            returns (uint8)\n    {\n        uint8 maxValue = 10;\n\n        // Pseudo random number...the incrementing nonce adds variation\n        uint8 random = uint8(uint256(keccak256(abi.encodePacked(blockhash(block.number - nonce++), account))) % maxValue);\n\n        if (nonce > 250) {\n            nonce = 0;  // Can only fetch blockhashes for last 256 blocks so we adapt\n        }\n\n        return random;\n    }\n\n// endregion\n\n}   \n",
  "sourcePath": "F:/UDACITY_NANO_BLOCK/projectfolder/eleven/FlightSurety/contracts/FlightSuretyApp.sol",
  "compiler": {
    "name": "solc",
    "version": "0.6.12+commit.27d51765.Emscripten.clang"
  },
  "schemaVersion": "3.3.3",
  "updatedAt": "2021-08-26T07:03:09.992Z",
  "devdoc": {
    "kind": "dev",
    "methods": {
      "constructor": {
        "details": "Contract constructor"
      },
      "newfund()": {
        "details": "allow a registered airline to fund required should be operational and registered  "
      },
      "registerAirline(address)": {
        "details": "Add an airline to the registration queue"
      },
      "registerFlight(address)": {
        "details": "Register a future flight for insuring."
      },
      "setOperatingStatus(bool)": {
        "details": "Sets operations status (status)"
      }
    },
    "version": 1
  },
  "userdoc": {
    "kind": "user",
    "methods": {},
    "version": 1
  }
}