{
  "contractName": "SolnSquareVerifier",
  "abi": [
    {
      "constant": true,
      "inputs": [
        {
          "name": "interfaceId",
          "type": "bytes4"
        }
      ],
      "name": "supportsInterface",
      "outputs": [
        {
          "name": "",
          "type": "bool"
        }
      ],
      "payable": false,
      "stateMutability": "view",
      "type": "function"
    },
    {
      "constant": true,
      "inputs": [
        {
          "name": "tokenId",
          "type": "uint256"
        }
      ],
      "name": "getApproved",
      "outputs": [
        {
          "name": "",
          "type": "address"
        }
      ],
      "payable": false,
      "stateMutability": "view",
      "type": "function"
    },
    {
      "constant": false,
      "inputs": [
        {
          "name": "to",
          "type": "address"
        },
        {
          "name": "tokenId",
          "type": "uint256"
        }
      ],
      "name": "approve",
      "outputs": [],
      "payable": false,
      "stateMutability": "nonpayable",
      "type": "function"
    },
    {
      "constant": true,
      "inputs": [],
      "name": "totalSupply",
      "outputs": [
        {
          "name": "",
          "type": "uint256"
        }
      ],
      "payable": false,
      "stateMutability": "view",
      "type": "function"
    },
    {
      "constant": false,
      "inputs": [
        {
          "name": "from",
          "type": "address"
        },
        {
          "name": "to",
          "type": "address"
        },
        {
          "name": "tokenId",
          "type": "uint256"
        }
      ],
      "name": "transferFrom",
      "outputs": [],
      "payable": false,
      "stateMutability": "nonpayable",
      "type": "function"
    },
    {
      "constant": false,
      "inputs": [
        {
          "name": "_myid",
          "type": "bytes32"
        },
        {
          "name": "_result",
          "type": "string"
        }
      ],
      "name": "__callback",
      "outputs": [],
      "payable": false,
      "stateMutability": "nonpayable",
      "type": "function"
    },
    {
      "constant": true,
      "inputs": [
        {
          "name": "owner",
          "type": "address"
        },
        {
          "name": "index",
          "type": "uint256"
        }
      ],
      "name": "tokenOfOwnerByIndex",
      "outputs": [
        {
          "name": "",
          "type": "uint256"
        }
      ],
      "payable": false,
      "stateMutability": "view",
      "type": "function"
    },
    {
      "constant": true,
      "inputs": [],
      "name": "get_symbol",
      "outputs": [
        {
          "name": "",
          "type": "string"
        }
      ],
      "payable": false,
      "stateMutability": "view",
      "type": "function"
    },
    {
      "constant": false,
      "inputs": [
        {
          "name": "_myid",
          "type": "bytes32"
        },
        {
          "name": "_result",
          "type": "string"
        },
        {
          "name": "_proof",
          "type": "bytes"
        }
      ],
      "name": "__callback",
      "outputs": [],
      "payable": false,
      "stateMutability": "nonpayable",
      "type": "function"
    },
    {
      "constant": true,
      "inputs": [],
      "name": "get_name",
      "outputs": [
        {
          "name": "",
          "type": "string"
        }
      ],
      "payable": false,
      "stateMutability": "view",
      "type": "function"
    },
    {
      "constant": false,
      "inputs": [
        {
          "name": "to",
          "type": "address"
        },
        {
          "name": "tokenId",
          "type": "uint256"
        }
      ],
      "name": "mint",
      "outputs": [
        {
          "name": "isMinted",
          "type": "bool"
        }
      ],
      "payable": false,
      "stateMutability": "nonpayable",
      "type": "function"
    },
    {
      "constant": false,
      "inputs": [
        {
          "name": "from",
          "type": "address"
        },
        {
          "name": "to",
          "type": "address"
        },
        {
          "name": "tokenId",
          "type": "uint256"
        }
      ],
      "name": "safeTransferFrom",
      "outputs": [],
      "payable": false,
      "stateMutability": "nonpayable",
      "type": "function"
    },
    {
      "constant": true,
      "inputs": [
        {
          "name": "index",
          "type": "uint256"
        }
      ],
      "name": "tokenByIndex",
      "outputs": [
        {
          "name": "",
          "type": "uint256"
        }
      ],
      "payable": false,
      "stateMutability": "view",
      "type": "function"
    },
    {
      "constant": true,
      "inputs": [],
      "name": "get_baseTokenURI",
      "outputs": [
        {
          "name": "",
          "type": "string"
        }
      ],
      "payable": false,
      "stateMutability": "view",
      "type": "function"
    },
    {
      "constant": true,
      "inputs": [
        {
          "name": "tokenId",
          "type": "uint256"
        }
      ],
      "name": "ownerOf",
      "outputs": [
        {
          "name": "",
          "type": "address"
        }
      ],
      "payable": false,
      "stateMutability": "view",
      "type": "function"
    },
    {
      "constant": true,
      "inputs": [
        {
          "name": "owner",
          "type": "address"
        }
      ],
      "name": "balanceOf",
      "outputs": [
        {
          "name": "",
          "type": "uint256"
        }
      ],
      "payable": false,
      "stateMutability": "view",
      "type": "function"
    },
    {
      "constant": false,
      "inputs": [
        {
          "name": "to",
          "type": "address"
        },
        {
          "name": "approved",
          "type": "bool"
        }
      ],
      "name": "setApprovalForAll",
      "outputs": [],
      "payable": false,
      "stateMutability": "nonpayable",
      "type": "function"
    },
    {
      "constant": false,
      "inputs": [
        {
          "name": "from",
          "type": "address"
        },
        {
          "name": "to",
          "type": "address"
        },
        {
          "name": "tokenId",
          "type": "uint256"
        },
        {
          "name": "_data",
          "type": "bytes"
        }
      ],
      "name": "safeTransferFrom",
      "outputs": [],
      "payable": false,
      "stateMutability": "nonpayable",
      "type": "function"
    },
    {
      "constant": true,
      "inputs": [
        {
          "name": "tokenId",
          "type": "uint256"
        }
      ],
      "name": "tokenURI",
      "outputs": [
        {
          "name": "",
          "type": "string"
        }
      ],
      "payable": false,
      "stateMutability": "view",
      "type": "function"
    },
    {
      "constant": true,
      "inputs": [
        {
          "name": "owner",
          "type": "address"
        },
        {
          "name": "operator",
          "type": "address"
        }
      ],
      "name": "isApprovedForAll",
      "outputs": [
        {
          "name": "",
          "type": "bool"
        }
      ],
      "payable": false,
      "stateMutability": "view",
      "type": "function"
    },
    {
      "constant": false,
      "inputs": [
        {
          "name": "newStatus",
          "type": "bool"
        }
      ],
      "name": "setterPause",
      "outputs": [],
      "payable": false,
      "stateMutability": "nonpayable",
      "type": "function"
    },
    {
      "constant": true,
      "inputs": [],
      "name": "getter_owner",
      "outputs": [
        {
          "name": "",
          "type": "address"
        }
      ],
      "payable": false,
      "stateMutability": "view",
      "type": "function"
    },
    {
      "constant": false,
      "inputs": [
        {
          "name": "newOwner",
          "type": "address"
        }
      ],
      "name": "transferOwnership",
      "outputs": [],
      "payable": false,
      "stateMutability": "nonpayable",
      "type": "function"
    },
    {
      "inputs": [
        {
          "name": "solVerifier",
          "type": "address"
        },
        {
          "name": "_name",
          "type": "string"
        },
        {
          "name": "_symbol",
          "type": "string"
        },
        {
          "name": "_baseTokenURI",
          "type": "string"
        }
      ],
      "payable": false,
      "stateMutability": "nonpayable",
      "type": "constructor"
    },
    {
      "anonymous": false,
      "inputs": [
        {
          "indexed": false,
          "name": "index",
          "type": "uint256"
        },
        {
          "indexed": false,
          "name": "solVerified",
          "type": "address"
        },
        {
          "indexed": false,
          "name": "hashKey",
          "type": "bytes32"
        }
      ],
      "name": "NewSolutionIsAdded",
      "type": "event"
    },
    {
      "anonymous": false,
      "inputs": [
        {
          "indexed": false,
          "name": "hashKey",
          "type": "bytes32"
        }
      ],
      "name": "Tempevent",
      "type": "event"
    },
    {
      "anonymous": false,
      "inputs": [
        {
          "indexed": true,
          "name": "from",
          "type": "address"
        },
        {
          "indexed": true,
          "name": "to",
          "type": "address"
        },
        {
          "indexed": true,
          "name": "tokenId",
          "type": "uint256"
        }
      ],
      "name": "Transfer",
      "type": "event"
    },
    {
      "anonymous": false,
      "inputs": [
        {
          "indexed": true,
          "name": "owner",
          "type": "address"
        },
        {
          "indexed": true,
          "name": "approved",
          "type": "address"
        },
        {
          "indexed": true,
          "name": "tokenId",
          "type": "uint256"
        }
      ],
      "name": "Approval",
      "type": "event"
    },
    {
      "anonymous": false,
      "inputs": [
        {
          "indexed": true,
          "name": "owner",
          "type": "address"
        },
        {
          "indexed": true,
          "name": "operator",
          "type": "address"
        },
        {
          "indexed": false,
          "name": "approved",
          "type": "bool"
        }
      ],
      "name": "ApprovalForAll",
      "type": "event"
    },
    {
      "anonymous": false,
      "inputs": [
        {
          "indexed": false,
          "name": "contractOwner",
          "type": "address"
        }
      ],
      "name": "Paused",
      "type": "event"
    },
    {
      "anonymous": false,
      "inputs": [
        {
          "indexed": false,
          "name": "contractOwner",
          "type": "address"
        }
      ],
      "name": "UnPaused",
      "type": "event"
    },
    {
      "anonymous": false,
      "inputs": [
        {
          "indexed": false,
          "name": "oldOwner",
          "type": "address"
        },
        {
          "indexed": false,
          "name": "newOwner",
          "type": "address"
        }
      ],
      "name": "TransferedOwnership",
      "type": "event"
    },
    {
      "constant": false,
      "inputs": [
        {
          "name": "index",
          "type": "uint256"
        },
        {
          "name": "solVerified",
          "type": "address"
        },
        {
          "name": "a",
          "type": "uint256[2]"
        },
        {
          "name": "a_p",
          "type": "uint256[2]"
        },
        {
          "name": "b",
          "type": "uint256[2][2]"
        },
        {
          "name": "b_p",
          "type": "uint256[2]"
        },
        {
          "name": "c",
          "type": "uint256[2]"
        },
        {
          "name": "c_p",
          "type": "uint256[2]"
        },
        {
          "name": "h",
          "type": "uint256[2]"
        },
        {
          "name": "k",
          "type": "uint256[2]"
        },
        {
          "name": "input",
          "type": "uint256[2]"
        }
      ],
      "name": "addSolution",
      "outputs": [],
      "payable": false,
      "stateMutability": "nonpayable",
      "type": "function"
    },
    {
      "constant": false,
      "inputs": [
        {
          "name": "tokenId",
          "type": "uint256"
        },
        {
          "name": "a",
          "type": "uint256[2]"
        },
        {
          "name": "a_p",
          "type": "uint256[2]"
        },
        {
          "name": "b",
          "type": "uint256[2][2]"
        },
        {
          "name": "b_p",
          "type": "uint256[2]"
        },
        {
          "name": "c",
          "type": "uint256[2]"
        },
        {
          "name": "c_p",
          "type": "uint256[2]"
        },
        {
          "name": "h",
          "type": "uint256[2]"
        },
        {
          "name": "k",
          "type": "uint256[2]"
        },
        {
          "name": "input",
          "type": "uint256[2]"
        },
        {
          "name": "solVerified",
          "type": "address"
        }
      ],
      "name": "verifiedMinter",
      "outputs": [
        {
          "name": "isMinted",
          "type": "bool"
        }
      ],
      "payable": false,
      "stateMutability": "nonpayable",
      "type": "function"
    }
  ],
  "bytecode": "0x60806040523480156200001157600080fd5b50604051620040ae380380620040ae833981018060405260808110156200003757600080fd5b810190808051906020019092919080516401000000008111156200005a57600080fd5b828101905060208101848111156200007157600080fd5b81518560018202830111640100000000821117156200008f57600080fd5b50509291906020018051640100000000811115620000ac57600080fd5b82810190506020810184811115620000c357600080fd5b8151856001820283011164010000000082111715620000e157600080fd5b50509291906020018051640100000000811115620000fe57600080fd5b828101905060208101848111156200011557600080fd5b81518560018202830111640100000000821117156200013357600080fd5b5050929190505050828282828282336000806101000a81548173ffffffffffffffffffffffffffffffffffffffff021916908373ffffffffffffffffffffffffffffffffffffffff1602179055507f93091b3f3cd424efabc74e181f3799f3476ed758412561ed3b29515c51f56752600033604051808373ffffffffffffffffffffffffffffffffffffffff1673ffffffffffffffffffffffffffffffffffffffff1681526020018273ffffffffffffffffffffffffffffffffffffffff1673ffffffffffffffffffffffffffffffffffffffff1681526020019250505060405180910390a160008060146101000a81548160ff0219169083151502179055506200024b6301ffc9a760e01b6200032f60201b60201c565b620002636380ac58cd60e01b6200032f60201b60201c565b6200027b63780e9d6360e01b6200032f60201b60201c565b82600f908051906020019062000293929190620003cf565b508160109080519060200190620002ac929190620003cf565b508060119080519060200190620002c5929190620003cf565b50620002de635b5e139f60e01b6200032f60201b60201c565b50505050505083601360006101000a81548173ffffffffffffffffffffffffffffffffffffffff021916908373ffffffffffffffffffffffffffffffffffffffff160217905550505050506200047e565b63ffffffff60e01b817bffffffffffffffffffffffffffffffffffffffffffffffffffffffff191614156200036357600080fd5b6001806000837bffffffffffffffffffffffffffffffffffffffffffffffffffffffff19167bffffffffffffffffffffffffffffffffffffffffffffffffffffffff1916815260200190815260200160002060006101000a81548160ff02191690831515021790555050565b828054600181600116156101000203166002900490600052602060002090601f016020900481019282601f106200041257805160ff191683800117855562000443565b8280016001018555821562000443579182015b828111156200044257825182559160200191906001019062000425565b5b50905062000452919062000456565b5090565b6200047b91905b80821115620004775760008160009055506001016200045d565b5090565b90565b613c20806200048e6000396000f3fe608060405234801561001057600080fd5b50600436106101735760003560e01c80634d5112ed116100de578063a22cb46511610097578063e985e9c511610071578063e985e9c5146110c1578063ec605a991461113d578063ed419be71461116d578063f2fde38b146111b757610173565b8063a22cb46514610ec5578063b88d4fde14610f15578063c87b56dd1461101a57610173565b80634d5112ed146107825780634f6ccce714610a6a57806354663ee114610aac5780635b0baab114610b2f5780636352211e14610dff57806370a0823114610e6d57610173565b80632f745c59116101305780632f745c59146103ea578063301b5ab81461044c57806338bbfa50146104cf5780633a525c291461062b57806340c10f19146106ae57806342842e0e1461071457610173565b806301ffc9a714610178578063081812fc146101dd578063095ea7b31461024b57806318160ddd1461029957806323b872dd146102b757806327dc297e14610325575b600080fd5b6101c36004803603602081101561018e57600080fd5b8101908080357bffffffffffffffffffffffffffffffffffffffffffffffffffffffff191690602001909291905050506111fb565b604051808215151515815260200191505060405180910390f35b610209600480360360208110156101f357600080fd5b8101908080359060200190929190505050611263565b604051808273ffffffffffffffffffffffffffffffffffffffff1673ffffffffffffffffffffffffffffffffffffffff16815260200191505060405180910390f35b6102976004803603604081101561026157600080fd5b81019080803573ffffffffffffffffffffffffffffffffffffffff169060200190929190803590602001909291905050506112a0565b005b6102a16114b4565b6040518082815260200191505060405180910390f35b610323600480360360608110156102cd57600080fd5b81019080803573ffffffffffffffffffffffffffffffffffffffff169060200190929190803573ffffffffffffffffffffffffffffffffffffffff169060200190929190803590602001909291905050506114c1565b005b6103e86004803603604081101561033b57600080fd5b81019080803590602001909291908035906020019064010000000081111561036257600080fd5b82018360208201111561037457600080fd5b8035906020019184600183028401116401000000008311171561039657600080fd5b91908080601f016020809104026020016040519081016040528093929190818152602001838380828437600081840152601f19601f8201169050808301925050505050505091929192905050506114e4565b005b6104366004803603604081101561040057600080fd5b81019080803573ffffffffffffffffffffffffffffffffffffffff16906020019092919080359060200190929190505050611527565b6040518082815260200191505060405180910390f35b61045461159a565b6040518080602001828103825283818151815260200191508051906020019080838360005b83811015610494578082015181840152602081019050610479565b50505050905090810190601f1680156104c15780820380516001836020036101000a031916815260200191505b509250505060405180910390f35b610629600480360360608110156104e557600080fd5b81019080803590602001909291908035906020019064010000000081111561050c57600080fd5b82018360208201111561051e57600080fd5b8035906020019184600183028401116401000000008311171561054057600080fd5b91908080601f016020809104026020016040519081016040528093929190818152602001838380828437600081840152601f19601f820116905080830192505050505050509192919290803590602001906401000000008111156105a357600080fd5b8201836020820111156105b557600080fd5b803590602001918460018302840111640100000000831117156105d757600080fd5b91908080601f016020809104026020016040519081016040528093929190818152602001838380828437600081840152601f19601f82011690508083019250505050505050919291929050505061163c565b005b610633611641565b6040518080602001828103825283818151815260200191508051906020019080838360005b83811015610673578082015181840152602081019050610658565b50505050905090810190601f1680156106a05780820380516001836020036101000a031916815260200191505b509250505060405180910390f35b6106fa600480360360408110156106c457600080fd5b81019080803573ffffffffffffffffffffffffffffffffffffffff169060200190929190803590602001909291905050506116e3565b604051808215151515815260200191505060405180910390f35b6107806004803603606081101561072a57600080fd5b81019080803573ffffffffffffffffffffffffffffffffffffffff169060200190929190803573ffffffffffffffffffffffffffffffffffffffff169060200190929190803590602001909291905050506117c4565b005b610a5060048036036102c081101561079957600080fd5b810190808035906020019092919080604001906002806020026040519081016040528092919082600260200280828437600081840152601f19601f820116905080830192505050505050919291929080604001906002806020026040519081016040528092919082600260200280828437600081840152601f19601f82011690508083019250505050505091929192908060800190600280602002604051908101604052809291906000905b82821015610899578382604002016002806020026040519081016040528092919082600260200280828437600081840152601f19601f82011690508083019250505050505081526020019060010190610845565b50505050919291929080604001906002806020026040519081016040528092919082600260200280828437600081840152601f19601f820116905080830192505050505050919291929080604001906002806020026040519081016040528092919082600260200280828437600081840152601f19601f820116905080830192505050505050919291929080604001906002806020026040519081016040528092919082600260200280828437600081840152601f19601f820116905080830192505050505050919291929080604001906002806020026040519081016040528092919082600260200280828437600081840152601f19601f820116905080830192505050505050919291929080604001906002806020026040519081016040528092919082600260200280828437600081840152601f19601f820116905080830192505050505050919291929080604001906002806020026040519081016040528092919082600260200280828437600081840152601f19601f8201169050808301925050505050509192919290803573ffffffffffffffffffffffffffffffffffffffff1690602001909291905050506117e4565b604051808215151515815260200191505060405180910390f35b610a9660048036036020811015610a8057600080fd5b8101908080359060200190929190505050611dea565b6040518082815260200191505060405180910390f35b610ab4611e1e565b6040518080602001828103825283818151815260200191508051906020019080838360005b83811015610af4578082015181840152602081019050610ad9565b50505050905090810190601f168015610b215780820380516001836020036101000a031916815260200191505b509250505060405180910390f35b610dfd60048036036102c0811015610b4657600080fd5b8101908080359060200190929190803573ffffffffffffffffffffffffffffffffffffffff16906020019092919080604001906002806020026040519081016040528092919082600260200280828437600081840152601f19601f820116905080830192505050505050919291929080604001906002806020026040519081016040528092919082600260200280828437600081840152601f19601f82011690508083019250505050505091929192908060800190600280602002604051908101604052809291906000905b82821015610c66578382604002016002806020026040519081016040528092919082600260200280828437600081840152601f19601f82011690508083019250505050505081526020019060010190610c12565b50505050919291929080604001906002806020026040519081016040528092919082600260200280828437600081840152601f19601f820116905080830192505050505050919291929080604001906002806020026040519081016040528092919082600260200280828437600081840152601f19601f820116905080830192505050505050919291929080604001906002806020026040519081016040528092919082600260200280828437600081840152601f19601f820116905080830192505050505050919291929080604001906002806020026040519081016040528092919082600260200280828437600081840152601f19601f820116905080830192505050505050919291929080604001906002806020026040519081016040528092919082600260200280828437600081840152601f19601f820116905080830192505050505050919291929080604001906002806020026040519081016040528092919082600260200280828437600081840152601f19601f8201169050808301925050505050509192919290505050611ec0565b005b610e2b60048036036020811015610e1557600080fd5b8101908080359060200190929190505050612257565b604051808273ffffffffffffffffffffffffffffffffffffffff1673ffffffffffffffffffffffffffffffffffffffff16815260200191505060405180910390f35b610eaf60048036036020811015610e8357600080fd5b81019080803573ffffffffffffffffffffffffffffffffffffffff169060200190929190505050612294565b6040518082815260200191505060405180910390f35b610f1360048036036040811015610edb57600080fd5b81019080803573ffffffffffffffffffffffffffffffffffffffff1690602001909291908035151590602001909291905050506122e4565b005b61101860048036036080811015610f2b57600080fd5b81019080803573ffffffffffffffffffffffffffffffffffffffff169060200190929190803573ffffffffffffffffffffffffffffffffffffffff1690602001909291908035906020019092919080359060200190640100000000811115610f9257600080fd5b820183602082011115610fa457600080fd5b80359060200191846001830284011164010000000083111715610fc657600080fd5b91908080601f016020809104026020016040519081016040528093929190818152602001838380828437600081840152601f19601f82011690508083019250505050505050919291929050505061241e565b005b6110466004803603602081101561103057600080fd5b8101908080359060200190929190505050612444565b6040518080602001828103825283818151815260200191508051906020019080838360005b8381101561108657808201518184015260208101905061106b565b50505050905090810190601f1680156110b35780820380516001836020036101000a031916815260200191505b509250505060405180910390f35b611123600480360360408110156110d757600080fd5b81019080803573ffffffffffffffffffffffffffffffffffffffff169060200190929190803573ffffffffffffffffffffffffffffffffffffffff16906020019092919050505061250b565b604051808215151515815260200191505060405180910390f35b61116b6004803603602081101561115357600080fd5b8101908080351515906020019092919050505061259f565b005b61117561267e565b604051808273ffffffffffffffffffffffffffffffffffffffff1673ffffffffffffffffffffffffffffffffffffffff16815260200191505060405180910390f35b6111f9600480360360208110156111cd57600080fd5b81019080803573ffffffffffffffffffffffffffffffffffffffff1690602001909291905050506126a7565b005b600060016000837bffffffffffffffffffffffffffffffffffffffffffffffffffffffff19167bffffffffffffffffffffffffffffffffffffffffffffffffffffffff1916815260200190815260200160002060009054906101000a900460ff169050919050565b60006003600083815260200190815260200160002060009054906101000a900473ffffffffffffffffffffffffffffffffffffffff169050919050565b6112a981612257565b73ffffffffffffffffffffffffffffffffffffffff168273ffffffffffffffffffffffffffffffffffffffff16141561134a576040517f08c379a00000000000000000000000000000000000000000000000000000000081526004018080602001828103825260118152602001807f6e6f7420616c6c6f776564206f776e657200000000000000000000000000000081525060200191505060405180910390fd5b61135261267e565b73ffffffffffffffffffffffffffffffffffffffff163373ffffffffffffffffffffffffffffffffffffffff1614806113915750611390338361250b565b5b611403576040517f08c379a00000000000000000000000000000000000000000000000000000000081526004018080602001828103825260208152602001807f4e6f20617574686f7269747920746f20617070726f7665207472616e7366657281525060200191505060405180910390fd5b816003600083815260200190815260200160002060006101000a81548173ffffffffffffffffffffffffffffffffffffffff021916908373ffffffffffffffffffffffffffffffffffffffff160217905550808273ffffffffffffffffffffffffffffffffffffffff163373ffffffffffffffffffffffffffffffffffffffff167f8c5be1e5ebec7d5bd14f71427d1e84f3dd0314c0f7b2291e5b200ac8c7c3b92560405160405180910390a45050565b6000600880549050905090565b6114cb338261290d565b6114d457600080fd5b6114df8383836129a2565b505050565b611523828260006040519080825280601f01601f19166020018201604052801561151d5781602001600182028038833980820191505090505b5061163c565b5050565b600061153283612294565b821061153d57600080fd5b600660008473ffffffffffffffffffffffffffffffffffffffff1673ffffffffffffffffffffffffffffffffffffffff168152602001908152602001600020828154811061158757fe5b9060005260206000200154905092915050565b606060108054600181600116156101000203166002900480601f0160208091040260200160405190810160405280929190818152602001828054600181600116156101000203166002900480156116325780601f1061160757610100808354040283529160200191611632565b820191906000526020600020905b81548152906001019060200180831161161557829003601f168201915b5050505050905090565b505050565b6060600f8054600181600116156101000203166002900480601f0160208091040260200160405190810160405280929190818152602001828054600181600116156101000203166002900480156116d95780601f106116ae576101008083540402835291602001916116d9565b820191906000526020600020905b8154815290600101906020018083116116bc57829003601f168201915b5050505050905090565b60003373ffffffffffffffffffffffffffffffffffffffff166000809054906101000a900473ffffffffffffffffffffffffffffffffffffffff1673ffffffffffffffffffffffffffffffffffffffff16146117a7576040517f08c379a000000000000000000000000000000000000000000000000000000000815260040180806020018281038252600b8152602001807f77726f6e67206f776e657200000000000000000000000000000000000000000081525060200191505060405180910390fd5b6117b183836129c6565b6117ba826129e7565b6001905092915050565b6117df8383836040518060200160405280600081525061241e565b505050565b600080905060008b8b8b8b8b8b8b8b8b604051602001808a600260200280838360005b83811015611822578082015181840152602081019050611807565b5050505090500189600260200280838360005b83811015611850578082015181840152602081019050611835565b505050509050018860026000925b818410156118a45782846020020151600260200280838360005b83811015611893578082015181840152602081019050611878565b50505050905001926001019261185e565b9250505087600260200280838360005b838110156118cf5780820151818401526020810190506118b4565b5050505090500186600260200280838360005b838110156118fd5780820151818401526020810190506118e2565b5050505090500185600260200280838360005b8381101561192b578082015181840152602081019050611910565b5050505090500184600260200280838360005b8381101561195957808201518184015260208101905061193e565b5050505090500183600260200280838360005b8381101561198757808201518184015260208101905061196c565b5050505090500182600260200280838360005b838110156119b557808201518184015260208101905061199a565b505050509050019950505050505050505050604051602081830303815290604052805190602001209050600073ffffffffffffffffffffffffffffffffffffffff166015600083815260200190815260200160002060010160009054906101000a900473ffffffffffffffffffffffffffffffffffffffff1673ffffffffffffffffffffffffffffffffffffffff1614611ab7576040517f08c379a000000000000000000000000000000000000000000000000000000000815260040180806020018281038252601e8152602001807f536f6c7574696f6e2020686173206265656e2075736564206265666f7265000081525060200191505060405180910390fd5b6000601360009054906101000a900473ffffffffffffffffffffffffffffffffffffffff1673ffffffffffffffffffffffffffffffffffffffff1663fe01ff628e8e8e8e8e8e8e8e8e6040518a63ffffffff1660e01b8152600401808a600260200280838360005b83811015611b3a578082015181840152602081019050611b1f565b5050505090500189600260200280838360005b83811015611b68578082015181840152602081019050611b4d565b505050509050018860026000925b81841015611bbc5782846020020151600260200280838360005b83811015611bab578082015181840152602081019050611b90565b505050509050019260010192611b76565b9250505087600260200280838360005b83811015611be7578082015181840152602081019050611bcc565b5050505090500186600260200280838360005b83811015611c15578082015181840152602081019050611bfa565b5050505090500185600260200280838360005b83811015611c43578082015181840152602081019050611c28565b5050505090500184600260200280838360005b83811015611c71578082015181840152602081019050611c56565b5050505090500183600260200280838360005b83811015611c9f578082015181840152602081019050611c84565b5050505090500182600260200280838360005b83811015611ccd578082015181840152602081019050611cb2565b505050509050019950505050505050505050602060405180830381600087803b158015611cf957600080fd5b505af1158015611d0d573d6000803e3d6000fd5b505050506040513d6020811015611d2357600080fd5b8101908080519060200190929190505050905080611da9576040517f08c379a000000000000000000000000000000000000000000000000000000000815260040180806020018281038252600d8152602001807f50726f6f6620696e76616c69640000000000000000000000000000000000000081525060200191505060405180910390fd5b8015611dd857611dc28e338f8f8f8f8f8f8f8f8f611ec0565b611dcc848f6116e3565b92508292505050611ddb565b50505b9b9a5050505050505050505050565b6000611df46114b4565b8210611dff57600080fd5b60088281548110611e0c57fe5b90600052602060002001549050919050565b606060118054600181600116156101000203166002900480601f016020809104026020016040519081016040528092919081815260200182805460018160011615610100020316600290048015611eb65780601f10611e8b57610100808354040283529160200191611eb6565b820191906000526020600020905b815481529060010190602001808311611e9957829003601f168201915b5050505050905090565b611ec8613a99565b60405180604001604052808d81526020018c73ffffffffffffffffffffffffffffffffffffffff16815250905060008a8a8a8a8a8a8a8a8a604051602001808a600260200280838360005b83811015611f2e578082015181840152602081019050611f13565b5050505090500189600260200280838360005b83811015611f5c578082015181840152602081019050611f41565b505050509050018860026000925b81841015611fb05782846020020151600260200280838360005b83811015611f9f578082015181840152602081019050611f84565b505050509050019260010192611f6a565b9250505087600260200280838360005b83811015611fdb578082015181840152602081019050611fc0565b5050505090500186600260200280838360005b83811015612009578082015181840152602081019050611fee565b5050505090500185600260200280838360005b8381101561203757808201518184015260208101905061201c565b5050505090500184600260200280838360005b8381101561206557808201518184015260208101905061204a565b5050505090500183600260200280838360005b83811015612093578082015181840152602081019050612078565b5050505090500182600260200280838360005b838110156120c15780820151818401526020810190506120a6565b50505050905001995050505050505050505060405160208183030381529060405280519060200120905081601560008381526020019081526020016000206000820151816000015560208201518160010160006101000a81548173ffffffffffffffffffffffffffffffffffffffff021916908373ffffffffffffffffffffffffffffffffffffffff160217905550905050601482908060018154018082558091505090600182039060005260206000209060020201600090919290919091506000820151816000015560208201518160010160006101000a81548173ffffffffffffffffffffffffffffffffffffffff021916908373ffffffffffffffffffffffffffffffffffffffff1602179055505050507f9eecf18d736c5c98c1c2c69fece5ea03f5d506e071976d2d5f0ffa24708c39ef8d8d83604051808481526020018373ffffffffffffffffffffffffffffffffffffffff1673ffffffffffffffffffffffffffffffffffffffff168152602001828152602001935050505060405180910390a150505050505050505050505050565b60006002600083815260200190815260200160002060009054906101000a900473ffffffffffffffffffffffffffffffffffffffff169050919050565b60006122dd600460008473ffffffffffffffffffffffffffffffffffffffff1673ffffffffffffffffffffffffffffffffffffffff168152602001908152602001600020612b38565b9050919050565b3373ffffffffffffffffffffffffffffffffffffffff168273ffffffffffffffffffffffffffffffffffffffff16141561231d57600080fd5b80600560003373ffffffffffffffffffffffffffffffffffffffff1673ffffffffffffffffffffffffffffffffffffffff16815260200190815260200160002060008473ffffffffffffffffffffffffffffffffffffffff1673ffffffffffffffffffffffffffffffffffffffff16815260200190815260200160002060006101000a81548160ff0219169083151502179055508173ffffffffffffffffffffffffffffffffffffffff163373ffffffffffffffffffffffffffffffffffffffff167f17307eab39ab6107e8899845ad3d59bd9653f200f220920489ca2b5937696c3183604051808215151515815260200191505060405180910390a35050565b6124298484846114c1565b61243584848484612b46565b61243e57600080fd5b50505050565b606061244f82612d2f565b61245857600080fd5b601260008381526020019081526020016000208054600181600116156101000203166002900480601f0160208091040260200160405190810160405280929190818152602001828054600181600116156101000203166002900480156124ff5780601f106124d4576101008083540402835291602001916124ff565b820191906000526020600020905b8154815290600101906020018083116124e257829003601f168201915b50505050509050919050565b6000600560008473ffffffffffffffffffffffffffffffffffffffff1673ffffffffffffffffffffffffffffffffffffffff16815260200190815260200160002060008373ffffffffffffffffffffffffffffffffffffffff1673ffffffffffffffffffffffffffffffffffffffff16815260200190815260200160002060009054906101000a900460ff16905092915050565b3373ffffffffffffffffffffffffffffffffffffffff166000809054906101000a900473ffffffffffffffffffffffffffffffffffffffff1673ffffffffffffffffffffffffffffffffffffffff1614612661576040517f08c379a000000000000000000000000000000000000000000000000000000000815260040180806020018281038252600b8152602001807f77726f6e67206f776e657200000000000000000000000000000000000000000081525060200191505060405180910390fd5b80600060146101000a81548160ff02191690831515021790555050565b60008060009054906101000a900473ffffffffffffffffffffffffffffffffffffffff16905090565b3373ffffffffffffffffffffffffffffffffffffffff166000809054906101000a900473ffffffffffffffffffffffffffffffffffffffff1673ffffffffffffffffffffffffffffffffffffffff1614612769576040517f08c379a000000000000000000000000000000000000000000000000000000000815260040180806020018281038252600b8152602001807f77726f6e67206f776e657200000000000000000000000000000000000000000081525060200191505060405180910390fd5b600073ffffffffffffffffffffffffffffffffffffffff168173ffffffffffffffffffffffffffffffffffffffff16141561280c576040517f08c379a000000000000000000000000000000000000000000000000000000000815260040180806020018281038252601e8152602001807f506c6561736520636865636b206164647265737320616e64207265747279000081525060200191505060405180910390fd5b60008060009054906101000a900473ffffffffffffffffffffffffffffffffffffffff169050816000806101000a81548173ffffffffffffffffffffffffffffffffffffffff021916908373ffffffffffffffffffffffffffffffffffffffff1602179055507f93091b3f3cd424efabc74e181f3799f3476ed758412561ed3b29515c51f567528183604051808373ffffffffffffffffffffffffffffffffffffffff1673ffffffffffffffffffffffffffffffffffffffff1681526020018273ffffffffffffffffffffffffffffffffffffffff1673ffffffffffffffffffffffffffffffffffffffff1681526020019250505060405180910390a15050565b60008061291983612257565b90508073ffffffffffffffffffffffffffffffffffffffff168473ffffffffffffffffffffffffffffffffffffffff16148061298857508373ffffffffffffffffffffffffffffffffffffffff1661297084611263565b73ffffffffffffffffffffffffffffffffffffffff16145b806129995750612998818561250b565b5b91505092915050565b6129ad838383612da1565b6129b78382612f6e565b6129c1828261310c565b505050565b6129d082826131d3565b6129da828261310c565b6129e3816133f1565b5050565b6129f081612d2f565b612a62576040517f08c379a00000000000000000000000000000000000000000000000000000000081526004018080602001828103825260148152602001807f546f6b656e20646f65736e6f742065786973747300000000000000000000000081525060200191505060405180910390fd5b612b0e60118054600181600116156101000203166002900480601f016020809104026020016040519081016040528092919081815260200182805460018160011615610100020316600290048015612afb5780601f10612ad057610100808354040283529160200191612afb565b820191906000526020600020905b815481529060010190602001808311612ade57829003601f168201915b5050505050612b098361343d565b61356a565b601260008381526020019081526020016000209080519060200190612b34929190613ac9565b5050565b600081600001549050919050565b6000612b678473ffffffffffffffffffffffffffffffffffffffff166135ae565b612b745760019050612d27565b60008473ffffffffffffffffffffffffffffffffffffffff1663150b7a02338887876040518563ffffffff1660e01b8152600401808573ffffffffffffffffffffffffffffffffffffffff1673ffffffffffffffffffffffffffffffffffffffff1681526020018473ffffffffffffffffffffffffffffffffffffffff1673ffffffffffffffffffffffffffffffffffffffff16815260200183815260200180602001828103825283818151815260200191508051906020019080838360005b83811015612c4f578082015181840152602081019050612c34565b50505050905090810190601f168015612c7c5780820380516001836020036101000a031916815260200191505b5095505050505050602060405180830381600087803b158015612c9e57600080fd5b505af1158015612cb2573d6000803e3d6000fd5b505050506040513d6020811015612cc857600080fd5b8101908080519060200190929190505050905063150b7a0260e01b7bffffffffffffffffffffffffffffffffffffffffffffffffffffffff1916817bffffffffffffffffffffffffffffffffffffffffffffffffffffffff1916149150505b949350505050565b6000806002600084815260200190815260200160002060009054906101000a900473ffffffffffffffffffffffffffffffffffffffff169050600073ffffffffffffffffffffffffffffffffffffffff168173ffffffffffffffffffffffffffffffffffffffff161415915050919050565b612daa81612257565b73ffffffffffffffffffffffffffffffffffffffff168373ffffffffffffffffffffffffffffffffffffffff1614612e2d576040517f08c379a000000000000000000000000000000000000000000000000000000000815260040180806020018281038252602c815260200180613b9b602c913960400191505060405180910390fd5b600073ffffffffffffffffffffffffffffffffffffffff168273ffffffffffffffffffffffffffffffffffffffff161415612eb3576040517f08c379a000000000000000000000000000000000000000000000000000000000815260040180806020018281038252602e815260200180613bc7602e913960400191505060405180910390fd5b612ebc816135f9565b816002600083815260200190815260200160002060006101000a81548173ffffffffffffffffffffffffffffffffffffffff021916908373ffffffffffffffffffffffffffffffffffffffff160217905550808273ffffffffffffffffffffffffffffffffffffffff168473ffffffffffffffffffffffffffffffffffffffff167fddf252ad1be2c89b69c2b068fc378daa952ba7f163c4a11628f55a4df523b3ef60405160405180910390a4505050565b6000612fc66001600660008673ffffffffffffffffffffffffffffffffffffffff1673ffffffffffffffffffffffffffffffffffffffff168152602001908152602001600020805490506136b790919063ffffffff16565b90506000600760008481526020019081526020016000205490508181146130b3576000600660008673ffffffffffffffffffffffffffffffffffffffff1673ffffffffffffffffffffffffffffffffffffffff168152602001908152602001600020838154811061303357fe5b9060005260206000200154905080600660008773ffffffffffffffffffffffffffffffffffffffff1673ffffffffffffffffffffffffffffffffffffffff168152602001908152602001600020838154811061308b57fe5b9060005260206000200181905550816007600083815260200190815260200160002081905550505b600660008573ffffffffffffffffffffffffffffffffffffffff1673ffffffffffffffffffffffffffffffffffffffff1681526020019081526020016000208054809190600190036131059190613b49565b5050505050565b600660008373ffffffffffffffffffffffffffffffffffffffff1673ffffffffffffffffffffffffffffffffffffffff168152602001908152602001600020805490506007600083815260200190815260200160002081905550600660008373ffffffffffffffffffffffffffffffffffffffff1673ffffffffffffffffffffffffffffffffffffffff1681526020019081526020016000208190806001815401808255809150509060018203906000526020600020016000909192909190915055505050565b600015156131e082612d2f565b151514613255576040517f08c379a00000000000000000000000000000000000000000000000000000000081526004018080602001828103825260168152602001807f746f6b656e496420616c7265616479206578697374730000000000000000000081525060200191505060405180910390fd5b600073ffffffffffffffffffffffffffffffffffffffff168273ffffffffffffffffffffffffffffffffffffffff1614156132f8576040517f08c379a00000000000000000000000000000000000000000000000000000000081526004018080602001828103825260188152602001807f676976656e206164647265737320697320696e76616c6964000000000000000081525060200191505060405180910390fd5b816002600083815260200190815260200160002060006101000a81548173ffffffffffffffffffffffffffffffffffffffff021916908373ffffffffffffffffffffffffffffffffffffffff160217905550613391600460008473ffffffffffffffffffffffffffffffffffffffff1673ffffffffffffffffffffffffffffffffffffffff168152602001908152602001600020613701565b808273ffffffffffffffffffffffffffffffffffffffff16600073ffffffffffffffffffffffffffffffffffffffff167fddf252ad1be2c89b69c2b068fc378daa952ba7f163c4a11628f55a4df523b3ef60405160405180910390a45050565b6008805490506009600083815260200190815260200160002081905550600881908060018154018082558091505090600182039060005260206000200160009091929091909150555050565b60606000821415613485576040518060400160405280600181526020017f30000000000000000000000000000000000000000000000000000000000000008152509050613565565b600082905060005b600082146134af578080600101915050600a82816134a757fe5b04915061348d565b6060816040519080825280601f01601f1916602001820160405280156134e45781602001600182028038833980820191505090505b50905060006001830390505b6000861461355d57600a868161350257fe5b0660300160f81b8282806001900393508151811061351c57fe5b60200101907effffffffffffffffffffffffffffffffffffffffffffffffffffffffffffff1916908160001a905350600a868161355557fe5b0495506134f0565b819450505050505b919050565b60606135a68383604051806020016040528060008152506040518060200160405280600081525060405180602001604052806000815250613717565b905092915050565b60008060007fc5d2460186f7233c927e7db2dcc703c0e500b653ca82273b7bfad8045d85a47060001b9050833f91508082141580156135f057506000801b8214155b92505050919050565b600073ffffffffffffffffffffffffffffffffffffffff166003600083815260200190815260200160002060009054906101000a900473ffffffffffffffffffffffffffffffffffffffff1673ffffffffffffffffffffffffffffffffffffffff16146136b45760006003600083815260200190815260200160002060006101000a81548173ffffffffffffffffffffffffffffffffffffffff021916908373ffffffffffffffffffffffffffffffffffffffff1602179055505b50565b60006136f983836040518060400160405280601e81526020017f536166654d6174683a207375627472616374696f6e206f766572666c6f7700008152506139d9565b905092915050565b6001816000016000828254019250508190555050565b6060808690506060869050606086905060608690506060869050606081518351855187518951010101016040519080825280601f01601f1916602001820160405280156137735781602001600182028038833980820191505090505b509050606081905060008090506000809050600090505b88518110156137f85788818151811061379f57fe5b602001015160f81c60f81b8383806001019450815181106137bc57fe5b60200101907effffffffffffffffffffffffffffffffffffffffffffffffffffffffffffff1916908160001a905350808060010191505061378a565b600090505b875181101561386b5787818151811061381257fe5b602001015160f81c60f81b83838060010194508151811061382f57fe5b60200101907effffffffffffffffffffffffffffffffffffffffffffffffffffffffffffff1916908160001a90535080806001019150506137fd565b600090505b86518110156138de5786818151811061388557fe5b602001015160f81c60f81b8383806001019450815181106138a257fe5b60200101907effffffffffffffffffffffffffffffffffffffffffffffffffffffffffffff1916908160001a9053508080600101915050613870565b600090505b8551811015613951578581815181106138f857fe5b602001015160f81c60f81b83838060010194508151811061391557fe5b60200101907effffffffffffffffffffffffffffffffffffffffffffffffffffffffffffff1916908160001a90535080806001019150506138e3565b600090505b84518110156139c45784818151811061396b57fe5b602001015160f81c60f81b83838060010194508151811061398857fe5b60200101907effffffffffffffffffffffffffffffffffffffffffffffffffffffffffffff1916908160001a9053508080600101915050613956565b82995050505050505050505095945050505050565b6000838311158290613a86576040517f08c379a00000000000000000000000000000000000000000000000000000000081526004018080602001828103825283818151815260200191508051906020019080838360005b83811015613a4b578082015181840152602081019050613a30565b50505050905090810190601f168015613a785780820380516001836020036101000a031916815260200191505b509250505060405180910390fd5b5060008385039050809150509392505050565b604051806040016040528060008152602001600073ffffffffffffffffffffffffffffffffffffffff1681525090565b828054600181600116156101000203166002900490600052602060002090601f016020900481019282601f10613b0a57805160ff1916838001178555613b38565b82800160010185558215613b38579182015b82811115613b37578251825591602001919060010190613b1c565b5b509050613b459190613b75565b5090565b815481835581811115613b7057818360005260206000209182019101613b6f9190613b75565b5b505050565b613b9791905b80821115613b93576000816000905550600101613b7b565b5090565b9056fe66726f6d2061646472657373206973206e6f7420746865206f776e6572206f6620676976656e20746f6b656e746f6b656e206973206e6f74206265696e67207472616e73666572656420746f2076616c69642061646472657373a165627a7a72305820cd3e532a489bdbe2982b5db8e636a3bd19b845b97ea8e1b1700f6097ff587ac70029",
  "source": "pragma solidity >=0.4.21 <0.6.0;\nimport \"./Verifier.sol\";\nimport \"./ERC721Mintable.sol\";\n\n// TODO define a contract call to the zokrates generated solidity contract <Verifier> or <renamedVerifier>\n\n\n// TODO define another contract named SolnSquareVerifier that inherits from your ERC721Mintable class\ncontract SolnSquareVerifier is AbERC721Token {\n Verifier verifier;\n\n\n// define a contract call to the zokrates generated solidity contract <Verifier> or <renamedVerifier>\n  // ++ instantiated inside CONSTRUCTOR\n \n\n  constructor(\n    address solVerifier,\n    string memory _name, string memory _symbol, string memory _baseTokenURI\n  ) public AbERC721Token(_name, _symbol, _baseTokenURI) {\n    verifier = Verifier(solVerifier);\n  }\n\n  // define a solutions struct that can hold an index & an address\n  struct Solution {\n    uint256 index;\n    address solVerified;\n  }\n\n  // define an array of the above struct\n  Solution[] SolutionsArray;\n\n\n  // define a mapping to store unique solutions submitted\n  mapping(bytes32 => Solution) uniqueSolutions;\n\n\n  // Create an event to emit when a solution is added\n  event NewSolutionIsAdded(uint256 index, address solVerified, bytes32 hashKey);\n    event Tempevent(bytes32 hashKey);\n\n\n\n  // Create a function to add the solutions to the array and emit the event\n  function addSolution(uint256 index, address solVerified ,uint[2] memory a,\n            uint[2] memory a_p,\n            uint[2][2] memory b,\n            uint[2] memory b_p,\n            uint[2] memory c,\n            uint[2] memory c_p,\n            uint[2] memory h,\n            uint[2] memory k,\n            uint[2] memory input) public {\n    Solution memory newSolution = Solution(index, solVerified);\n\n    // Add Solution struct instance to addedSolutions array\n   \n    bytes32 hashKey = keccak256(abi.encodePacked(a, a_p, b, b_p, c, c_p, h , k ,input));\n\n\n    // Add new Solution struct instance to map\n    uniqueSolutions[hashKey] = newSolution;\n     SolutionsArray.push(newSolution);\n    // Emit Event\n    emit NewSolutionIsAdded(index, solVerified, hashKey);\n  }\n\n\n  // Create a function to mint new NFT only after the solution has been verified\n  function verifiedMinter(\n            uint256 tokenId,\n            uint[2] memory a,\n            uint[2] memory a_p,\n            uint[2][2] memory b,\n            uint[2] memory b_p,\n            uint[2] memory c,\n            uint[2] memory c_p,\n            uint[2] memory h,\n            uint[2] memory k,\n            uint[2] memory input,\n           address solVerified\n    \n   \n    ) public returns(bool isMinted) {\n      isMinted = false;\n      bytes32 hashKey = keccak256(abi.encodePacked(a, a_p, b, b_p, c, c_p, h , k ,input));\n      //  - make sure the solution is unique (has not been used before)\n      require(uniqueSolutions[hashKey].solVerified == address(0), \"Solution  has been used before\");\n\n      // Verify Tx Proof\n      bool isVerified = verifier.verifyTx(a, a_p, b, b_p, c, c_p, h ,k , input);\n      require(isVerified, \"Proof invalid\");\n\n        // mint(solVerified, tokenId);\n        if(isVerified){\n             addSolution(tokenId, msg.sender, a, a_p, b, b_p, c, c_p, h, k, input);\n             isMinted = mint(solVerified, tokenId);\n             return isMinted; \n        }\n              \n    }\n\n}\n\n\n\n\n\n\n\n\n\n\n\n\n\n\n\n\n\n\n\n\n\n\n\n",
  "sourcePath": "F:/UDACITY_NANO_BLOCK/projectfolder/twelve/Blockchain-Capstone/eth-contracts/contracts/SolnSquareVerifier.sol",
  "compiler": {
    "name": "solc",
    "version": "0.5.7+commit.6da8b019.Emscripten.clang"
  },
  "schemaVersion": "3.3.3",
  "updatedAt": "2021-09-09T17:06:34.687Z",
  "networkType": "ethereum",
  "devdoc": {
    "methods": {
      "isApprovedForAll(address,address)": {
        "details": "Tells whether an operator is approved by a given owner",
        "params": {
          "operator": "operator address which you want to query the approval of",
          "owner": "owner address which you want to query the approval of"
        },
        "return": "bool whether the given operator is approved by the given owner"
      },
      "setApprovalForAll(address,bool)": {
        "details": "Sets or unsets the approval of a given operator An operator is allowed to transfer all tokens of the sender on their behalf",
        "params": {
          "approved": "representing the status of the approval to be set",
          "to": "operator address to set the approval"
        }
      },
      "supportsInterface(bytes4)": {
        "details": "implement supportsInterface(bytes4) using a lookup table"
      },
      "tokenByIndex(uint256)": {
        "details": "Gets the token ID at a given index of all the tokens in this contract Reverts if the index is greater or equal to the total number of tokens",
        "params": {
          "index": "uint256 representing the index to be accessed of the tokens list"
        },
        "return": "uint256 token ID at the given index of the tokens list"
      },
      "tokenOfOwnerByIndex(address,uint256)": {
        "details": "Gets the token ID at a given index of the tokens list of the requested owner",
        "params": {
          "index": "uint256 representing the index to be accessed of the requested tokens list",
          "owner": "address owning the tokens list to be accessed"
        },
        "return": "uint256 token ID at the given index of the tokens list owned by the requested address"
      },
      "totalSupply()": {
        "details": "Gets the total amount of tokens stored by the contract",
        "return": "uint256 representing the total amount of tokens"
      }
    }
  },
  "userdoc": {
    "methods": {}
  }
}